:100000000C9434000C943E000C943E000C943E0082
:100010000C943E000C943E000C943E000C943E0068
:100020000C943E000C943E000C943E000C943E0058
:100030000C943E000C943E000C943E000C943E0048
:100040000C943E000C943E000C943E000C943E0038
:100050000C943E000C943E000C943E000C943E0028
:100060000C943E000C943E0011241FBECFEFD8E04C
:10007000DEBFCDBF0E9495000C94D2000C9400000E
:10008000389A409A2FEF80E792E0215080409040CC
:10009000E1F700C000000895DC01CB01880F991F33
:1000A000AA1FBB1F880F991FAA1FBB1F9C01AD0170
:1000B000220F331F441F551F220F331F441F551F8C
:1000C00060E072E18AE790E00E94B00021503109BF
:1000D0002093C400220F232F221F330B319581E080
:1000E000232B09F480E08093C50088E18093C10050
:1000F00086E08093C2000895CF93DF93DC01E0ECAB
:10010000F0E0C6ECD0E02D91908195FFFDCF2883E3
:100110002111F9CFDF91CF910895E0ECF0E08081DB
:100120008823ECF78091C6000895CF93DF9300D029
:100130001F92CDB7DEB70E94400060E875E280E014
:1001400090E00E944C0001E61AE009831A831B82AA
:100150000E948D008983CE0101960E947C00F5CF1C
:10016000A1E21A2EAA1BBB1BFD010DC0AA1FBB1FBB
:10017000EE1FFF1FA217B307E407F50720F0A21B2D
:10018000B30BE40BF50B661F771F881F991F1A949A
:1001900069F760957095809590959B01AC01BD01C4
:0801A000CF010895F894FFCF90
:00000001FF
