S01500006E6F64655F736F6674776172652E737265639F
S11300000C9495000C94240B0C94B2000C94B20044
S11300100C94B2000C94B2000C94B2000C94B20094
S11300200C94B2000C94B2000C94B2000C94B20084
S11300300C94B2000C94B2000C94B2000C94B20074
S11300400C94B2000C94B2000C94B2000C94B20064
S11300500C94B2000C94B2000C94B2000C94B20054
S11300600C949D030C94B200B5030304030403042D
S11300700304030403040304B70303040304030491
S11300800304030403040304B70303040304030481
S11300900304030403040304030403040304030424
S11300A00304030403040304B70303040304030461
S11300B00304030403040304030403040304030404
S11300C003040304030403040004030403040304F7
S11300D00304030403040304DF0303040304030409
S11300E003040304030403040304030403040304D4
S11300F00304030403040304D303030403040304F5
S11301000304030403040304F103A30DA80DAD0DBC
S1130110B20DB90DC00DC40DC80DCC0DD00DD30D4D
S1130120D70DDB0DDF0DE30DE70D11241FBECFEF5F
S1130130D8E0DEBFCDBF11E0A0E0B1E0E0E4F3E23F
S113014002C005900D92A432B107D9F721E0A4E2D0
S1130150B1E001C01D92A434B207E1F70E94A80ED9
S11301600C949E110C94000087E080937C00EAE7D5
S1130170F0E086E8808310927B0080818064808335
S1130180808184FFFDCF9091780060917900EAE747
S1130190F0E080818F77808370E0762F6627690F87
S11301A0711D072E000C880B990B0E94F20F23E39C
S11301B033E343E550E40E94A71020E030E040E838
S11301C05AE30E94A71020E030E040EC5FE30E9475
S11301D0A710089586E080937C00EAE7F0E086E8C3
S11301E0808310927B00808180648083808184FF7F
S11301F0FDCF9091780060917900EAE7F0E080818A
S11302008F77808370E0762F6627690F711D072E24
S1130210000C880B990B0E94F20F23E333E343E5B0
S113022050E40E94A71020E030E040E85AE30E9426
S1130230A7100895389A409A2FEF80E792E0215052
S113024080409040E1F700C000000895389840983D
S11302505E980895569A5E980895569A5E9A0895FF
S11302604F925F926F927F928F929F92AF92BF92C2
S1130270CF92DF92EF92FF920F931F9369017A015D
S1130280569A232B242B252B09F443C040E000E08D
S113029010E098012C01612C712CF1E04B01A12C90
S11302A0B12CE0E04423B9F0080D191D2A1D3B1DB3
S11302B05E9A6115710529F140E050E0AFECB7E0BA
S11302C01197F1F700C000004F5F5F4F6417750787
S11302D0A9F74E2F19C0040D151D261D371D5E9854
S11302E0009789F040E050E0AFECB7E01197F1F7E8
S11302F000C000004F5F5F4F84179507A9F74F2F89
S113030003C04E2F01C04F2F0C151D052E053F05B0
S113031048F25E9A1F910F91FF90EF90DF90CF907B
S1130320BF90AF909F908F907F906F905F904F9011
S11303300895E1E6F0E080818068808380E880832E
S113034082E08A95F1F700C081E00895CF930E947E
S1130350B400C1E020E030E040E650E40E94A21086
S113036088230CF4C0E08C2FCF910895229A2A9808
S113037023982B981B9B03C000001B99FDCF000002
S113038008951B9903C0000081E0089580E008955A
S1130390CF93C82F229A2A9801C000000E94C1015D
S11303A08823D9F38C2F90E0499620E030E02A9AF4
S11303B042E04A95F1F700C02A9842E04A95F1F7E5
S11303C000C02F5F3F4F281739078CF3CF91089552
S11303D0CF93C82F0E94C1018823E1F328E130E0C4
S11303E080E090E0DC012A9A42E04A95F1F700C0EF
S11303F0880F991FAA1FBB1F1B9981602A9842E08E
S11304004A95F1F700C02150310969F720E02A9A92
S113041032E03A95F1F700C02A9842E04A95F1F7A4
S113042000C02F5FC21798F7A7FDBF6FBC01CD01B5
S1130430CF910895CF93C62F0E94C8018C2F0E949C
S1130440E801CF910895CF92DF92EF92FF921F932C
S1130450CF93DF93182FD62F682F0E941A026B01B7
S11304607C01DD2359F0C0E0812F0E94E801C60E13
S1130470D71EE81EF91ECF5FDC13F6CF2D2F30E018
S113048040E050E0C701B6010E946A11CA01B901F7
S1130490DF91CF911F91FF90EF90DF90CF9008955F
S11304A0399A08953998089586B18695817008958A
S11304B0419808950E9450028FEB93E00197F1F761
S11304C000C000000E9452029AEB9A95F1F700C016
S11304D00E945402E3E3F3E03197F1F700C0000017
S11304E008951F93CF93DF93182FC8E0D0E010FF37
S11304F00CC00E94500280E18A95F1F70E945202DA
S11305008AEA8A95F1F700C00BC00E94500280EA83
S11305108A95F1F70E9452028AE18A95F1F700C0A8
S11305201695219721F7DF91CF911F9108951F937D
S1130530CF93DF93C0E0D0E010E00E94500220E1AE
S11305402A95F1F70E94520288E18A95F1F70E94F8
S1130550540290E00C2E02C0880F991F0A94E2F70F
S1130560182B82E98A95F1F700C02196C830D1058D
S113057021F7812FDF91CF911F9108951816190645
S1130580DCF4E5E2F1E0BC016B5D7E4F80E05CE809
S113059040E09191892728E030E0982F969580FDDE
S11305A002C0842F01C0852F892721503109A9F762
S11305B0E617F70771F7089580E008958CEC0E9420
S11305C071020895DC01CB01880F991FAA1FBB1F7C
S11305D0880F991FAA1FBB1F9C01AD01220F331F57
S11305E0441F551F220F331F441F551F60E072E143
S11305F08AE790E00E944811215031092093C400F9
S1130600220F232F221F330B319581E0232B09F472
S113061080E08093C50088E18093C10086E08093E8
S1130620C2000895CF93DF93DC01E0ECF0E0C6EC68
S1130630D0E02D91908195FFFDCF28832111F9CF32
S1130640DF91CF91089580E28093B800E9EBF0E068
S1130650808110828FEF8093BB0084E08093BC0084
S11306601092BA00789481E080932F010895ECEB06
S1130670F0E0808180FDFDCF80912F010895CF931C
S1130680DF93EC0160932E01ECEBF0E0908190FDA0
S1130690FDCF988190FF0BC090933001653120F419
S11306A081E080932F011EC010922F011EC065317E
S11306B0B0F4662381F0FE01A0E3B1E06150262F7F
S11306C030E02F5F3F4FCE01820F931F21912D9376
S11306D0E817F907D9F781E080932F0103C010923E
S11306E02F0103C085EA8093BC00DF91CF91089568
S11306F0AC01ECEBF0E0908190FDFDCF90912F01E7
S11307009923A9F06531A8F46623A9F0A0E3B1E028
S1130710FA016150262F30E02F5F3F4F240F351F21
S11307209D919193E217F307D9F781E0089580E052
S1130730089580E0089581E008951F920F920FB606
S11307400F9211242F933F938F939F93EF93FF93D3
S1130750E091B900F0E0EC7F3897E135F10508F05D
S113076052C0EC5CFF4F0C94891110922401E0916B
S1130770240180912E01E81778F4F0E0E05DFE4F4B
S113078080818093BB00809124018F5F809324013A
S113079085E88093BC003CC084E98093BC0081E080
S11307A080932F0135C0809124019091BB00E82FE4
S11307B0F0E0E05DFE4F90838F5F809324012091F1
S11307C0240130E080912E0190E001972817390729
S11307D024F485EC8093BC001BC085E88093BC00A6
S11307E017C08091BB00E0912401F0E0E05DFE4F72
S11307F0808381E080932F0184E98093BC0008C04A
S113080085EA8093BC0084E08093BC0010922F01A1
S1130810FF91EF919F918F913F912F910F900FBE78
S11308200F901F901895CF93DF9300D01F92CDB7F0
S1130830DEB790ED99838A836B8363E0CE010196E2
S11308400E943F030E9437030F900F900F90DF9197
S1130850CF9108950F931F93CF93DF9300D0CDB71B
S1130860DEB78B0190ED99838A8362E0CE01019615
S11308700E943F030E9437038823B1F081ED8983EE
S113088062E0CE0101960E943F030E943703882351
S113089059F062E0CE0101960E947803882321F08A
S11308A08A81F801808381E00F900F90DF91CF91CE
S11308B01F910F9108950F931F93CF93DF9300D04F
S11308C0CDB7DEB71FEF180F123050F5BE016F5FC2
S11308D07F4F8FE00E942A04882319F161E070E0C1
S11308E0CB0102C0880F991F1A95E2F78C01682F7B
S11308F060958981682369838FE00E9413048823AB
S113090081F0BE016E5F7F4F8EE00E942A0488232F
S113091041F06A81602B6A838EE00E94130401C057
S113092080E00F900F90DF91CF911F910F91089568
S11309301F93CF93DF931F92CDB7DEB71FEF180F2E
S11309401230B8F4BE016F5F7F4F8EE00E942A041C
S1130950882381F061E070E002C0660F771F1A956A
S1130960E2F760958981682369838EE00E9413040D
S113097001C080E00F90DF91CF911F910895CF9334
S1130980DF9300D01F92CDB7DEB780ED89838EE070
S11309908A831B8263E0CE0101960E943F032FE706
S11309A08AE196E0215080409040E1F700C00000C9
S11309B00E9437030F900F900F90DF91CF9108950D
S11309C0CF93DF931F92CDB7DEB7BE016F5F7F4F2A
S11309D08FE00E942A04882331F06981677F69834C
S11309E08FE00E9413040F90DF91CF910895CF936D
S11309F0DF931F92CDB7DEB7BE016F5F7F4F8EE0EE
S1130A000E942A04882331F06981646069838EE03E
S1130A100E9413040F90DF91CF910895CF92DF923B
S1130A20EF920F931F93CF93DF938C3308F0BDC0E5
S1130A306C3308F0BCC0483108F0BBC09FEF920F84
S1130A40973008F0B8C09FEF900F9F3108F0B5C001
S1130A509FEF9E0D9C3008F0B2C034E6C316D1045B
S1130A6008F0AFC0122FD42FC62F9DEC899F912D73
S1130A70112496959695969540E1949FB001112482
S1130A80990F292F220F220F920F891B682B80E0C8
S1130A900E941304882309F47CC08DECC89F812D27
S1130AA0112486958695869590E1899F900111245D
S1130AB0880F982F990F990F890F6C2F681B622B41
S1130AC081E00E941304882309F465C08DECD89F4B
S1130AD0212D1124922F92959F70990F990F392FE0
S1130AE0330F330F930FD91B9D2F22952F7040E4A2
S1130AF0249F90011124D89F812D112486958695D9
S1130B008695482F440F342F330F330F340F931B24
S1130B10292B30E2839FC0011124622F682B82E0CD
S1130B200E9413048823C9F1612F83E00E941304F7
S1130B308823A9F1802F6AE00E941411692F40E1F3
S1130B40849FC0011124682B84E00E94130488232D
S1130B5041F18E2D6AE00E941411692F20E1829FD9
S1130B60C0011124682B85E00E9413048823D9F066
S1130B70C6016AE070E00E9420116295607F682BD4
S1130B8086E00E94130491E0811101C090E0892F56
S1130B9019C080E017C080E015C080E013C080E079
S1130BA011C080E00FC080E00DC080E00BC080E089
S1130BB009C080E007C080E005C080E003C080E099
S1130BC001C080E0DF91CF911F910F91EF90DF90F2
S1130BD0CF900895EF920F931F93CF93DF93C62F77
S1130BE0142FD22F8C3308F0B1C06C3308F0B0C08E
S1130BF0483108F0AFC0EE2031F09FEF920F9730EC
S1130C00C8F080E0AAC09FEF920F9F3108F0A4C003
S1130C109DEC299F912D112496959695969520E10A
S1130C20929FA0011124990F292F220F220F920FB6
S1130C30D91BD42B2DEC829F212D1124922F969514
S1130C4096959695392F330F232F220F220F230FBA
S1130C50821B40E8049FB0011124862B40E1949F3D
S1130C6090011124682F622B87E00E9413048823CB
S1130C7009F466C0602F62706295660F660F607C2F
S1130C808DECC89F812D1124869586958695282FF5
S1130C90220F922F990F990F920FC91BC62B90E127
S1130CA0899FB00111246C2B88E00E9413048823CF
S1130CB009F448C08DEC189F312D1124232F22955F
S1130CC02F70220F220F922F990F990F290F121BA9
S1130CD0212F602F64706295660F607E189F812DAE
S1130CE01124982F969596959695492F440F842F05
S1130CF0880F880F840F281B262B32953F7040E401
S1130D00349FB0011124622B20E2929FC001112470
S1130D10682B89E00E9413048823B1F0602F687067
S1130D206295607F0071000F000F602B6D2B8AE0CD
S1130D300E94130491E0811101C090E0892F0DC03D
S1130D4080E00BC080E009C080E007C080E005C0FF
S1130D5080E003C080E001C080E0DF91CF911F916B
S1130D600F91EF90089581E00E945B04089582E062
S1130D700E94980408950F931F93CF93DF931F92BB
S1130D80CDB7DEB78C01BE016F5F7F4F8FE00E944D
S1130D902A04882391F0F8011082698160FF02C05F
S1130DA081E0808361FF04C0F80180818E5F8083CD
S1130DB06C7F69838FE00E9413040F90DF91CF91C1
S1130DC01F910F910895F8940E9458020E945A02AC
S1130DD081110E94DE02789480E00895F8940E94C4
S1130DE058020E945A02882339F00E94DE0284E4E9
S1130DF00E94710281E001C080E078940895CF924E
S1130E00DF92EF92FF920F931F93CF93DF93EC0146
S1130E10F8940E9458020E945A02882309F442C09E
S1130E200E94DE028EEB0E94710289E090E00E9433
S1130E30970289E090E00E94BE02811133C005E26E
S1130E4011E0F8018181908192959F70F0E18F9F6C
S1130E50B0011124692B807F782B072E000C880B9E
S1130E60990B0E94F20F6B017C01688379838A835A
S1130E709B83F80160816F7070E080E090E00E94D5
S1130E80F00F20E030E040E85DE30E94A710A701E6
S1130E9096010E94D70E688379838A839B83789412
S1130EA081E002C0789480E0DF91CF911F910F918F
S1130EB0FF90EF90DF90CF900895CF93DF93EC01F4
S1130EC00E94EE06882369F0F8940E9497028F3FEF
S1130ED0E1F7CE010E94FF06882319F0789481E09F
S1130EE002C0789480E0DF91CF910895CF93DF938F
S1130EF000D01F92CDB7DEB788E8898380E38A8368
S1130F0082EA8B8363E0CE0101960E943F038FE364
S1130F109FE10197F1F700C0000080912F010F902D
S1130F200F900F90DF91CF910895823029F0833094
S1130F3031F0813039F409C08BE09CE2089580E0FF
S1130F409CE2089580E090E0089586E19CE2089593
S1130F50823059F0833081F08130A1F48FE39FE136
S1130F600197F1F700C0000008958FED9EE201970C
S1130F70F1F700C0000008958FE59DE60197F1F7B1
S1130F8000C0000008958F929F92AF92BF92CF92BB
S1130F90DF92EF92FF920F931F93CF93DF93FC01A5
S1130FA0208120959085892F90E0982F8827092EFD
S1130FB0000CAA0BBB0BA22B2281822B40E1E0E1A7
S1130FC0F0E06FEF7FEF4150042F10E06C017D01E2
S1130FD0042E04C0F694E794D794C7940A94D2F7E5
S1130FE09601EF01C01BD10B5B0102C0B694A7941C
S1130FF0CA95E2F74501A12CB12C88229922AA2294
S1131000BB22D601AA27B170AB2B31F081E3C826ED
S113101081E0D8269601317002C0220F331F0A9551
S1131020E2F7C901A0E0B0E088299929AA29BB29DF
S11310304111C9CF21E0892B8A2B8B2B09F020E0A9
S1131040822FDF91CF911F910F91FF90EF90DF904E
S1131050CF90BF90AF909F908F900895CF92DF92E2
S1131060EF92FF921F93CF93DF93EC016A01790112
S1131070662331F00E94C307182F81110BC06EC084
S11310800E94C307182FCE0103960E94C30718239A
S113109029F564C0688170E0762F66278981682B02
S11310A0072E000C880B990B0E94F20F20E03FEFF3
S11310B04FE757E40E94480F20E030E04FE253E44A
S11310C00E94A71020E030E044E352E40E94D60ED0
S11310D0F601608371838283938340C0688170E0EA
S11310E0762F66278981682B072E000C880B990BB5
S11310F00E94F20F20E03FEF4FE757E40E94480FB1
S113110020E030E04FE253E40E94A71020E030E0FA
S113111044E352E40E94D60EF60160837183828315
S113112093836C8170E0762F66278D81682B072E60
S1131130000C880B990B0E94F20F20E03FEF4FE761
S113114057E40E94480F20E030E048EC52E40E944B
S1131150A710F7016083718382839383812FDF91CA
S1131160CF911F91FF90EF90DF90CF900895AF92B1
S1131170BF92CF92DF92FF920F931F93CF93DF938F
S113118000D000D000D0CDB7DEB7182F6B015A01C4
S1131190022F0E949507011105C00F2EF6E0FF2EC5
S11311A0F02D04C00F2EF3E0FF2EF02D0097D9F19F
S11311B0FE01319626E0DF011D922A95E9F728E821
S11311C029838A839B8363E0CF010E943F030E94AB
S11311D03703882321F1812F0E94A80789E8898396
S11311E061E06F0DCE0101960E943F038FEC97E002
S11311F00197F1F700C000006F2DCE0101960E9407
S11312007803882371F09501A601602FCE01019621
S11312100E942E0891E0811107C090E005C090E083
S113122003C090E001C090E0892F26960FB6F89491
S1131230DEBF0FBECDBFDF91CF911F910F91FF9005
S1131240DF90CF90BF90AF90089520E00E94B70840
S11312500895549A5C9A55985D9A089554985C98A8
S11312605D980895CF93DF939C019BB19F7EABB1B2
S1131270A0616623C1F1F901615070E06F5F7F4F97
S1131280620F731F9BB9CFECD0E02197F1F700C038
S1131290000040E050E0208130E0042E02C035958B
S11312A027950A94E2F72170332722953295307FEF
S11312B03227207F3227292B2BB9CFECD0E021977E
S11312C0F1F700C000004F5F5F4F4830510519F738
S11312D0ABB9CFECD0E02197F1F700C00000319614
S11312E06E177F0779F6DF91CF9108954F925F9241
S11312F07F928F929F92AF92BF92CF92DF92EF92A2
S1131300FF920F931F93CF93DF938C01F62E9A01D4
S1131310A8EEB3E00E948F1121E130E040E050E0FC
S11313200E94481149015A016F2D70E016161706E4
S11313300CF04DC0412C512CC12CD12C760121E054
S1131340712C4D992AC087E391E00197F1F700C011
S11313500000F801E40DF51D108280E090E039B141
S113136035FB332730F9C32FA0E0DA2FAE01082E66
S113137002C0440F551F0A94E2F73081432B408387
S1131380AFECB0E01197F1F700C00000019688308F
S1131390910529F7BFEF4B1A5B0A3FEFC31AD30A33
S11313A0E30AF30A8DE28A95F1F70000822F8C1488
S11313B09D04AE04BF0408F4872D882351F0822FC6
S11313C0461657060CF0872D8111BBCF02C0412C65
S11313D0512C81E06415750509F080E0DF91CF910F
S11313E01F910F91FF90EF90DF90CF90BF90AF903F
S11313F09F908F907F905F904F900895579A5F9A37
S11314008FEA94E00197F1F700C000005F9892E042
S11314109A95F1F700C05F9A579808950E94290998
S11314200E94FE0908950E94FE090E942E09089553
S1131430CF93DF9300D000D0CDB7DEB719821A82E4
S11314401B821C8281E4898384E58A838DE08B83FB
S113145063E0CE0101960E94320944EF51E064E05A
S1131460CE0101960E947609882351F089818F3438
S113147031F481E09A819B3419F080E001C080E06E
S11314800F900F900F900F90DF91CF910895CF930D
S1131490DF93CDB7DEB7A0970FB6F894DEBF0FBECB
S11314A0CDBFFE01319620E2DF011D922A95E9F7B6
S11314B021E4298324E52A8324E22B8323E52C8356
S11314C026E42D832DE32E83662379F0A82FB92FEC
S11314D036968FEF860F9E01280F311D285F3F4FF0
S11314E08D918193E217F307D9F7FE01E60FF11D01
S11314F08DE08783695FCE0101960E94320948E935
S11315005AE364E0CE0101960E947609882351F0E3
S113151089818F3431F481E09A819B3419F080E021
S113152001C080E0A0960FB6F894DEBF0FBECDBF19
S1131530DF91CF9108950F931F93CF93DF9300D042
S113154000D000D0CDB7DEB78C0186E0E0E0F1E05A
S1131550DE01119601900D928A95E1F766E0CE01C5
S113156001960E94320944EF51E064E0CE010196F5
S11315700E9476098823C9F06A8170E0762F662775
S11315808981680F711D072E000C880B990B0E942E
S1131590F20F20E030E040E251E40E94480FF801ED
S11315A0608371838283938381E026960FB6F894D7
S11315B0DEBF0FBECDBFDF91CF911F910F91089574
S11315C0CF93DF93CDB7DEB728970FB6F894DEBF7D
S11315D00FBECDBF98E0E3E1F1E0DE01119601908A
S11315E00D929A95E1F7811103C080E38F8309C0BE
S11315F0813019F481E38F8304C08230C9F482E31B
S11316008F8368E0CE0101960E94320944EF51E0D5
S113161064E0CE0101960E947609882361F08981F5
S11316208F3441F481E09A819B3429F080E003C037
S113163080E001C080E028960FB6F894DEBF0FBEAC
S1131640CDBFDF91CF9108951F920F920FB60F92E5
S113165011240F900FBE0F901F901895E89A83B72E
S1131660817F846083BF789483B7816083BF8895CA
S113167083B78E7F83BFF894E8980895CF93C82FDB
S11316800E941A01C13079F420E63AEE40E050E0BD
S11316906AEF70E08AEF90E00E9430010E94260118
S11316A00E942E0B10C0C23071F420E63AEE40E0E6
S11316B050E068EE73E088EE93E00E9430010E94EF
S11316C026010E942E0BCF910895CF92DF92EF92C4
S11316D00F93CF93DF931F92CDB7DEB7F894109298
S11316E069000E941A010E942A010E949901811135
S11316F003C081E00E943E0B0E94A601811103C039
S113170081E00E943E0B0E9423030E94BF048111CA
S113171003C081E00E943E0B0E94E004811103C0DB
S113172081E00E943E0B0F2EF5E1CF2ED12CF02D3F
S1131730EE24E39403E027E040E060E080E00E94D0
S11317400E05811103C081E00E943E0BE12C0CE0E8
S113175021E040E060E080E00E94EA05811103C0DE
S113176081E00E943E0B0E94B306811103C081E018
S11317700E943E0B0E94B706811103C081E00E94C3
S11317803E0B0E94F704811103C081E00E943E0BCE
S11317900E94F704882331F0CE0101960E94BB0613
S11317A0811103C081E00E943E0B1092BC000E9494
S11317B00E0A0E94180A811103C081E00E943E0BA8
S11317C081E00E94E00A811103C081E00E943E0B87
S11317D00E94130A0E942D010F90DF91CF910F9167
S11317E0EF90DF90CF9008952F923F924F925F92A7
S11317F06F927F928F929F92AF92BF92CF92DF921D
S1131800EF92FF920F931F93CF93DF93CDB7DEB781
S1131810C954D1090FB6F894DEBF0FBECDBF2896C8
S11318208FAF28970E942A012FEF30E742E0215022
S113183030404040E1F700C000000E942D010E94AA
S1131840B4006B017C010E94EA006FAB78AF89AFF2
S11318509AAF0E94B6010E94C1018823E1F36AE0B5
S113186080E00E942302762E7BAF8DAF9FAF0E9453
S113187023038FEC97E00197F1F700C000000E946A
S11318807607AE01475D5F4FBE016B5D7F4F83E01E
S11318900E94250981110CC080E090E0AAECB2E41A
S11318A08DA39EA3AFA3B8A789A79AA7ABA7BCA7EC
S11318B01092BC008AE00E94E306882379F0CE01EE
S11318C08D960E945D07811111C080E090E0AAEC22
S11318D0B2E48DA79EA7AFA7B8AB08C080E090E0A4
S11318E0AAECB2E48DA79EA7AFA7B8AB0E940E0ADC
S11318F010E003C01F5F133031F00E94180A8823E0
S1131900C9F3133049F428969FAD2897992309F415
S1131910F4C182E00E943E0BCE01C1960E949B0A54
S1131920811108C080E090E0AAECB2E489AB9AABE4
S1131930ABABBCAB20E030E048EC52E469A57AA53F
S11319408BA59CA50E94D70E4B015C010E94BA0F87
S1131950662E70E080E090E00E94F00F9B01AC01E5
S1131960C501B4010E94D60E69A77AA78BA79CA7CC
S113197020E030E04AE754E40E94A7100E94C10F1F
S1131980862F90E001E712E0B8010E943411462E40
S113199020E030E048EC52E46DA57EA58FA598A91F
S11319A00E94D70E4B015C010E94BA0F262E70E0F4
S11319B080E090E00E94F00F9B01AC01C501B401EE
S11319C00E94D60E6DA77EA78FA798AB20E030E0CB
S11319D04AE754E40E94A7100E94C10F862F90E0AA
S11319E0B8010E943411562E20E030E048EC52E455
S11319F069A97AA98BA99CA90E94D70E4B015C0105
S1131A000E94BA0F362E70E080E090E00E94F00F42
S1131A109B01AC01C501B4010E94D60E69AB7AAB3F
S1131A208BAB9CAB20E030E04AE754E40E94A71063
S1131A300E94C10F862F90E0B8010E943411062F36
S1131A406DA17EA18FA198A50E94BA0F162F20E048
S1131A5030E040E250E4C701B6010E94430F8823FE
S1131A609CF020E030E040E950E4C701B6010E9458
S1131A70A210181674F020E030E040E250E4C701F0
S1131A80B6010E94D60E09C060E070E080E290E4E6
S1131A9004C060E070E080E990E4DBACCDACBFACA6
S1131AA020E030E040E054E40E94A7100E94C10FFF
S1131AB021E029839B0136952795369527952A831E
S1131AC06370E0E46E9F7001112420E030E048E987
S1131AD051E46FA978AD89AD9AAD0E94A7100E9418
S1131AE0C10FE62AEB827C82DD82CE82BF82188718
S1131AF069862A863B86842D8295807F952D990F51
S1131B00990F892B082B0C879E012F5F3F4F279637
S1131B103FAF2EAF2797245F3F4FAE014B5D5F4F22
S1131B205EAB4DABAAC02596EEADFFAD2597082E52
S1131B3002C0F595E7950A94E2F7EF70FF27EB579B
S1131B40FF4F0C94891120E3EDADFEAD208342C01C
S1131B5021E3EFA9F8AD20833DC022E3EBADFCAD5A
S1131B60208338C023E32196EEADFFAD2197208377
S1131B7031C024E32396EEADFFAD239720832AC022
S1131B8025E3F101208326C026E3F201208322C04D
S1131B9027E3F30120831EC028E3F40120831AC045
S1131BA039E33C9317C021E4FA01208313C022E4F3
S1131BB0FB0120830FC023E4F80120830BC024E43D
S1131BC0F701208307C025E4F601208303C026E43F
S1131BD0F501208304972DAD3EAD2F5F3F4F3EAFFF
S1131BE02DAF2FA938AD2F5F3F4F38AF2FAB2BADA3
S1131BF03CAD2F5F3F4F3CAF2BAF21962EAD3FAD99
S1131C0021972F5F3F4F21963FAF2EAF2197239609
S1131C102EAD3FAD23972F5F3F4F23963FAF2EAF9F
S1131C2023973FEF231A330AEFEF4E1A5E0AFFEFB2
S1131C306F1A7F0A2FEF821A920A11964F5F5F4F35
S1131C406F5F7F4F0F5F1F4F3FEFE31AF30AEFEF12
S1131C50CE1ADE0AFFEFAF1ABF0A8C3F2FEF9207AE
S1131C6009F061CF2A962EAD3FAD2A972E5F3F4FE4
S1131C704DA95EA94217530779F12796EEADFFAD42
S1131C80279781912796FFAFEEAF2797482F50E013
S1131C9025965FAF4EAF25975901690179018901F6
S1131CA0B901A901D9014901390129011901239671
S1131CB03FAF2EAF239721963FAF2EAF21973CAF76
S1131CC02BAF38AF2FAB3EAF2DAF84E090E02A9618
S1131CD03FAF2EAF2A9727CF68E1CE010D960E9421
S1131CE0470A811108C028965FAD2897552329F02B
S1131CF082E00E943E0B0E94130AC75BDF4F0FB6BF
S1131D00F894DEBF0FBECDBFDF91CF911F910F912D
S1131D10FF90EF90DF90CF90BF90AF909F908F9007
S1131D207F906F905F904F903F902F900895CF9346
S1131D30DF931F92CDB7DEB70E942303CE01019635
S1131D400E94BB061092BC000F90DF91CF910895C2
S1131D50CF93DF93CDB7DEB728970FB6F894DEBFE5
S1131D600FBECDBF60E875E280E090E00E94E20221
S1131D7088E0EBE1F1E0DE01119601900D928A9585
S1131D80E1F7CE0101960E9412030E94650B81E0E7
S1131D900E94F40B0E941A010E94970E80E00E9498
S1131DA0F40B0E9426010E942E0BF4CF5058BB273F
S1131DB0AA270E94EE0E0C9468100E945A1038F064
S1131DC00E94611020F039F49F3F19F426F40C941A
S1131DD057100EF4E095E7FB0C945110E92F0E9484
S1131DE0791058F3BA17620773078407950720F030
S1131DF079F4A6F50C949B100EF4E0950B2EBA2FF3
S1131E00A02D0B01B90190010C01CA01A0011124FC
S1131E10FF27591B99F0593F50F4503E68F11A16A8
S1131E20F040A22F232F342F4427585FF3CF469539
S1131E3037952795A795F0405395C9F77EF41F165B
S1131E40BA0B620B730B840BBAF09150A1F0FF0F25
S1131E50BB1F661F771F881FC2F70EC0BA0F621F11
S1131E60731F841F48F4879577956795B795F79501
S1131E709E3F08F0B0CF9395880F08F09927EE0F96
S1131E809795879508950E942D1008F481E0089590
S1131E900E945C0F0C9468100E94611058F00E941C
S1131EA05A1040F029F45F3F29F00C94511051115D
S1131EB00C949C100C9457100E94791068F3992389
S1131EC0B1F3552391F3951B550BBB27AA27621732
S1131ED07307840738F09F5F5F4F220F331F441F3F
S1131EE0AA1FA9F335D00E2E3AF0E0E832D0915073
S1131EF05040E695001CCAF72BD0FE2F29D0660F60
S1131F00771F881FBB1F261737074807AB07B0E8A2
S1131F1009F0BB0B802DBF01FF2793585F4F3AF0A8
S1131F209E3F510578F00C9451100C949C105F3F27
S1131F30E4F3983ED4F3869577956795B795F7952E
S1131F409F5FC9F7880F911D9695879597F9089516
S1131F50E1E0660F771F881FBB1F621773078407B2
S1131F60BA0720F0621B730B840BBA0BEE1F88F7C1
S1131F70E09508950E94C10F6894B1110C949C10CF
S1131F8008950E94811088F09F5798F0B92F9927DF
S1131F90B751B0F0E1F0660F771F881F991F1AF050
S1131FA0BA95C9F714C0B13091F00E949B10B1E00A
S1131FB008950C949B10672F782F8827B85F39F009
S1131FC0B93FCCF3869577956795B395D9F73EF4E9
S1131FD090958095709561957F4F8F4F9F4F089591
S1131FE0E89409C097FB3EF49095809570956195AF
S1131FF07F4F8F4F9F4F9923A9F0F92F96E9BB2765
S11320009395F695879577956795B795F111F8CFE0
S1132010FAF4BB0F11F460FF1BC06F5F7F4F8F4F4B
S11320209F4F16C0882311F096E911C0772321F041
S11320309EE8872F762F05C0662371F096E8862FD9
S113204070E060E02AF09A95660F771F881FDAF730
S1132050880F9695879597F90895990F0008550F5D
S1132060AA0BE0E8FEEF16161706E807F907C0F01A
S113207012161306E407F50798F0621B730B840B22
S1132080950B39F40A2661F0232B242B252B21F4FC
S113209008950A2609F4A140A6958FEF811D811D9C
S11320A0089597F99F6780E870E060E008959FEFD6
S11320B080EC089500240A941616170618060906DB
S11320C0089500240A9412161306140605060895AA
S11320D0092E0394000C11F4882352F0BB0F40F432
S11320E0BF2B11F460FF04C06F5F7F4F8F4F9F4F72
S11320F0089557FD9058440F551F59F05F3F71F0F4
S11321004795880F97FB991F61F09F3F79F087955A
S11321100895121613061406551FF2CF4695F1DFE3
S113212008C0161617061806991FF1CF8695710573
S1132130610508940895E894BB2766277727CB01A7
S113214097F908950E942D1008F48FEF08950E94C6
S1132150BA100C9468100E945A1038F00E94611052
S113216020F0952311F00C9451100C945710112465
S11321700C949C100E94791070F3959FC1F3950FF5
S113218050E0551F629FF001729FBB27F00DB11DF7
S1132190639FAA27F00DB11DAA1F649F6627B00D87
S11321A0A11D661F829F2227B00DA11D621F739F70
S11321B0B00DA11D621F839FA00D611D221F749F7E
S11321C03327A00D611D231F849F600D211D822FC5
S11321D0762F6A2F11249F5750409AF0F1F08823EC
S11321E04AF0EE0FFF1FBB1F661F771F881F915019
S11321F05040A9F79E3F510580F00C9451100C9467
S11322009C105F3FE4F3983ED4F3869577956795E9
S1132210B795F795E7959F5FC1F7FE2B880F911D42
S11322209695879597F90895991B79E004C0991FAD
S1132230961708F0961B881F7A95C9F7809508951C
S1132240AA1BBB1B51E107C0AA1FBB1FA617B707D8
S113225010F0A61BB70B881F991F5A95A9F78095F4
S11322609095BC01CD01089597FB072E16F40094B8
S113227007D077FD09D00E94201107FC05D03EF459
S1132280909581959F4F0895709561957F4F08951E
S1132290A1E21A2EAA1BBB1BFD010DC0AA1FBB1F66
S11322A0EE1FFF1FA217B307E407F50720F0A21BD8
S11322B0B30BE40BF50B661F771F881F991F1A9445
S11322C069F760957095809590959B01AC01BD016F
S11322D0CF010895052E97FB1EF400940E948111EE
S11322E057FD07D00E94481107FC03D04EF40C940C
S11322F0811150954095309521953F4F4F4F5F4F39
S1132300089590958095709561957F4F8F4F9F4F5D
S11323100895EE0FFF1F0590F491E02D0994A29FFC
S1132320B001B39FC001A39F700D811D1124911DA5
S1132330B29F700D811D1124911D0895F894FFCF53
S1132340415424543F0D415424563F0D41542454C8
S1132350523F0D41542454523D000D5354415254A4
S10723600D0A00005E
S9030000FC
