S01500006E6F64655F736F6674776172652E737265639F
S11300000C949F000C949F0C0C94BC000C94BC00AA
S11300100C94BC000C94BC000C94BC000C94BC006C
S11300200C94BC000C94BC000C94BC000C94BC005C
S11300300C94BC000C94BC000C94BC000C94BC004C
S11300400C94BC000C94BC000C94BC000C94BC003C
S11300500C94BC000C94BC000C94BC000C94BC002C
S11300600C9408040C94BC0020046E046E046E040A
S11300706E046E046E046E0422046E046E046E0438
S11300806E046E046E046E0422046E046E046E0428
S11300906E046E046E046E046E046E046E046E04CC
S11300A06E046E046E046E0422046E046E046E0408
S11300B06E046E046E046E046E046E046E046E04AC
S11300C06E046E046E046E046B046E046E046E049F
S11300D06E046E046E046E044A046E046E046E04B0
S11300E06E046E046E046E046E046E046E046E047C
S11300F06E046E046E046E043E046E046E046E049C
S11301006E046E046E046E045C04C10BAF0BB10B81
S1130110B30BB50BB70BB90BBB0BBD0BBF0B2D0F43
S1130120320F370F3E0F450F4C0F500F540F580F1F
S11301305C0F5F0F630F670F6B0F6F0F730F11244B
S11301401FBECFEFD8E0DEBFCDBF11E0A0E0B1E02D
S1130150EAE2F6E202C005900D92A232B107D9F7A5
S113016021E0A2E2B1E001C01D92A234B207E1F79E
S11301700E943A100C9413130C94000087E08093AF
S11301807C00EAE7F0E086E8808310927B008081BF
S113019080648083808184FFFDCF9091780060919A
S11301A07900EAE7F0E080818F77808370E0762F32
S11301B06627690F711D072E000C880B990B0E948E
S11301C0671123E333E343E550E40E941C1220E06B
S11301D030E040E85AE30E941C1220E030E040EC9A
S11301E05FE30E941C12089586E080937C00EAE796
S11301F0F0E086E8808310927B00808180648083B5
S1130200808184FFFDCF9091780060917900EAE7C6
S1130210F0E080818F77808370E0762F6627690F06
S1130220711D072E000C880B990B0E94671123E3A4
S113023033E343E550E40E941C1220E030E040E840
S11302405AE30E941C120895389A409A2FEF80E7CF
S113025092E0215080409040E1F700C000000895F2
S1130260389840985E980895569A5E980895569ADC
S11302705E9A08954F925F926F927F928F929F92AF
S1130280AF92BF92CF92DF92EF92FF920F931F93A0
S113029069017A01569A232B242B252B09F443C098
S11302A040E000E010E098012C01612C712CF1E099
S11302B04B01A12CB12CE0E04423B9F0080D191D29
S11302C02A1D3B1D5E9A6115710529F140E050E03D
S11302D0AFECB7E01197F1F700C000004F5F5F4F3C
S11302E064177507A9F74E2F19C0040D151D261D97
S11302F0371D5E98009789F040E050E0AFECB7E01E
S11303001197F1F700C000004F5F5F4F8417950706
S1130310A9F74F2F03C04E2F01C04F2F0C151D05F9
S11303202E053F0548F25E9A1F910F91FF90EF90C2
S1130330DF90CF90BF90AF909F908F907F906F9001
S11303405F904F900895E1E6F0E0808180688083BB
S113035080E8808382E08A95F1F700C081E0089507
S1130360CF930E94BE00C1E020E030E040E650E4BC
S11303700E94171288230CF4C0E08C2FCF910895AB
S11303803A9A429837B126B181E090E0AC0102C0BC
S1130390440F551F2A95E2F7242F2095232327B9CC
S11303A028B136B102C0880F991F3A95E2F78095BB
S11303B0822388B98FEC97E00197F1F700C0000021
S11303C008953A98429837B126B181E090E0AC01A3
S11303D002C0440F551F2A95E2F7242F20952323AA
S11303E027B928B136B102C0880F991F3A95E2F7B0
S11303F08095822388B90895009789F020E030E041
S1130400339B0FC02F5F3F4FEFECF7E03197F1F7CD
S113041000C000008217930799F780E0089580E0F8
S113042008958FEC97E00197F1F700C0000081E098
S11304300895CF93C82F88EE93E00E94FC0188238F
S1130440C9F089E18C0F2AE12A95F1F700C08823CD
S113045081F090E0429A2AE12A95F1F700C042988F
S11304602AE12A95F1F700C09F5F8913F3CF81E059
S113047001C081E0CF9108951F93CF93DF93182F8C
S1130480EB0188EE93E00E94FC01882369F148E1C6
S113049050E080E090E0DC01429A2AE12A95F1F7ED
S11304A000C0880F991FAA1FBB1F26B123FB222758
S11304B020F9822B42983AE13A95F1F700C0415075
S11304C0510951F720E0429A3AE13A95F1F700C018
S11304D042983AE13A95F1F700C02F5F121798F766
S11304E0A88399838A8381E0DF91CF911F91089536
S11304F08F929F92AF92BF92DF92EF92FF920F93EF
S11305001F93CF93DF9300D01F92CDB7DEB7D82EC1
S1130510062F7A010E941902002399F110E0812C20
S1130520912C5401BE016F5F7F4F8D2D0E943C02C0
S11305308823B9F188EE93E00E94FC01882389F1B5
S113054049812A81842F90E0A0E0B0E0DC01992762
S11305508827922B2B81822B440F440B50E060E0C0
S113056070E0742F662755274427842B952BA62BE0
S1130570B72B880E991EAA1EBB1E1F5F0113D2CF74
S113058003C0812C912C5401202F30E040E050E036
S1130590C501B4010E94DF12F70140833183228335
S11305A081E00F900F900F90DF91CF911F910F91E9
S11305B0FF90EF90DF90BF90AF909F908F90089541
S11305C0399A08953998089586B186958170089569
S11305D0419808950E94E0028FEB93E00197F1F7B0
S11305E000C000000E94E2029AEB9A95F1F700C065
S11305F00E94E402811108C083E393E00197F1F7BC
S113060000C0000081E0089580E008951F93CF9317
S1130610DF93182FC8E0D0E010FF0CC00E94E00266
S113062080E18A95F1F70E94E2028AEA8A95F1F75D
S113063000C00BC00E94E00280EA8A95F1F70E9494
S1130640E2028AE18A95F1F700C01695219721F715
S1130650DF91CF911F9108951F93CF93DF93C0E053
S1130660D0E010E00E94E00220E12A95F1F70E9418
S1130670E20288E18A95F1F70E94E40290E00C2EF0
S113068002C0880F991F0A94E2F7182B82E98A9511
S1130690F1F700C02196C830D10521F7812FDF91F1
S11306A0CF911F9108950F931F93CF93DF93181643
S11306B019065CF4C3E2D1E08C010D5D1E4F0E946B
S11306C02C038993C017D107D1F7DF91CF911F91E4
S11306D00F91089518161906DCF4E3E2F1E0BC0169
S11306E06D5D7E4F80E05CE840E09191892728E0D1
S11306F030E0982F969580FD02C0842F01C0852F8D
S1130700892721503109A9F7E617F70771F70895EA
S113071080E008958CEC0E940603089580E28093A3
S1130720B800E9EBF0E0808110828FEF8093BB008A
S113073084E08093BC001092BA00789481E08093A6
S11307402D010895ECEBF0E0808180FDFDCF8091D8
S11307502D010895CF93DF93EC0160932C01ECEB12
S1130760F0E0908190FDFDCF988190FF0BC09093B5
S11307702E01653120F481E080932D011EC010927A
S11307802D011EC06531B0F4662381F0FE01AEE296
S1130790B1E06150262F30E02F5F3F4FCE01820F32
S11307A0931F21912D93E817F907D9F781E08093DE
S11307B02D0103C010922D0103C085EA8093BC0073
S11307C0DF91CF910895AC01ECEBF0E0908190FDC6
S11307D0FDCF90912D019923A9F06531A8F46623EA
S11307E0A9F0AEE2B1E0FA016150262F30E02F5FAC
S11307F03F4F240F351F9D919193E217F307D9F7CB
S113080081E0089580E0089580E0089581E00895EE
S11308101F920F920FB60F9211242F933F938F9331
S11308209F93EF93FF93E091B900F0E0EC7F38974A
S1130830E135F10508F052C0EC5CFF4F0C94FE1258
S113084010922201E091220180912C01E81778F4A2
S1130850F0E0E25DFE4F80818093BB008091220135
S11308608F5F8093220185E88093BC003CC084E9BB
S11308708093BC0081E080932D0135C080912201DA
S11308809091BB00E82FF0E0E25DFE4F90838F5F14
S1130890809322012091220130E080912C0190E08C
S11308A001972817390724F485EC8093BC001BC0FA
S11308B085E88093BC0017C08091BB00E0912201C1
S11308C0F0E0E25DFE4F808381E080932D0184E9B6
S11308D08093BC0008C085EA8093BC0084E08093C8
S11308E0BC0010922D01FF91EF919F918F913F9148
S11308F02F910F900FBE0F901F901895CF93DF93F9
S113090000D01F92CDB7DEB790ED99838A836B83B5
S113091063E0CE0101960E94AA030E94A2030F90F5
S11309200F900F90DF91CF9108950F931F93CF9362
S1130930DF9300D0CDB7DEB78B0190ED99838A8326
S113094062E0CE0101960E94AA030E94A2038823BA
S1130950B1F081ED898362E0CE0101960E94AA0381
S11309600E94A203882359F062E0CE0101960E94FE
S1130970E303882321F08A81F801808381E00F90CA
S11309800F90DF91CF911F910F9108950F931F93B3
S1130990CF93DF9300D0CDB7DEB71FEF180F12301F
S11309A050F5BE016F5F7F4F8FE00E94950488234E
S11309B019F161E070E0CB0102C0880F991F1A950C
S11309C0E2F78C01682F60958981682369838FE041
S11309D00E947E04882381F0BE016E5F7F4F8EE00B
S11309E00E949504882341F06A81602B6A838EE01B
S11309F00E947E0401C080E00F900F90DF91CF91A0
S1130A001F910F9108951F93CF93DF931F92CDB73A
S1130A10DEB71FEF180F1230B8F4BE016F5F7F4FBF
S1130A208EE00E949504882381F061E070E002C0AA
S1130A30660F771F1A95E2F76095898168236983A9
S1130A408EE00E947E0401C080E00F90DF91CF9180
S1130A501F910895CF93DF9300D01F92CDB7DEB7D7
S1130A6080ED89838EE08A831B8263E0CE01019648
S1130A700E94AA032FE78AE196E02150804090402B
S1130A80E1F700C000000E94A2030F900F900F90A6
S1130A90DF91CF910895CF93DF931F92CDB7DEB747
S1130AA0BE016F5F7F4F8FE00E949504882331F071
S1130AB06981677F69838FE00E947E040F90DF91D4
S1130AC0CF910895CF93DF931F92CDB7DEB7BE01C8
S1130AD06F5F7F4F8EE00E949504882331F0698117
S1130AE0646069838EE00E947E040F90DF91CF9151
S1130AF00895CF92DF92EF920F931F93CF93DF93DA
S1130B008C3308F0BDC06C3308F0BCC0483108F029
S1130B10BBC09FEF920F973008F0B8C09FEF900FC3
S1130B209F3108F0B5C09FEF9E0D9C3008F0B2C015
S1130B3034E6C316D10408F0AFC0122FD42FC62F49
S1130B409DEC899F912D112496959695969540E15B
S1130B50949FB0011124990F292F220F220F920F75
S1130B60891B682B80E00E947E04882309F47CC0E2
S1130B708DECC89F812D112486958695869590E1EC
S1130B80899F90011124880F982F990F990F890F2D
S1130B906C2F681B622B81E00E947E04882309F479
S1130BA065C08DECD89F212D1124922F92959F70B2
S1130BB0990F990F392F330F330F930FD91B9D2F93
S1130BC022952F7040E4249F90011124D89F812DF9
S1130BD01124869586958695482F440F342F330F1C
S1130BE0330F340F931B292B30E2839FC001112450
S1130BF0622F682B82E00E947E048823C9F1612F52
S1130C0083E00E947E048823A9F1802F6AE00E9479
S1130C108912692F40E1849FC0011124682B84E06C
S1130C200E947E04882341F18E2D6AE00E9489127D
S1130C30692F20E1829FC0011124682B85E00E9466
S1130C407E048823D9F0C6016AE070E00E94951200
S1130C506295607F682B86E00E947E0491E081119A
S1130C6001C090E0892F19C080E017C080E015C052
S1130C7080E013C080E011C080E00FC080E00DC0B0
S1130C8080E00BC080E009C080E007C080E005C0C0
S1130C9080E003C080E001C080E0DF91CF911F912C
S1130CA00F91EF90DF90CF900895EF920F931F93E1
S1130CB0CF93DF93C62F142FD22F8C3308F0B1C0FB
S1130CC06C3308F0B0C0483108F0AFC0EE2031F00A
S1130CD09FEF920F9730C8F080E0AAC09FEF920F69
S1130CE09F3108F0A4C09DEC299F912D1124969565
S1130CF09695969520E1929FA0011124990F292F92
S1130D00220F220F920FD91BD42B2DEC829F212D61
S1130D101124922F969596959695392F330F232F5C
S1130D20220F220F230F821B40E8049FB0011124DD
S1130D30862B40E1949F90011124682F622B87E059
S1130D400E947E04882309F466C0602F6270629555
S1130D50660F660F607C8DECC89F812D11248695EB
S1130D6086958695282F220F922F990F990F920F0F
S1130D70C91BC62B90E1899FB00111246C2B88E01C
S1130D800E947E04882309F448C08DEC189F312DFD
S1130D901124232F22952F70220F220F922F990FA7
S1130DA0990F290F121B212F602F64706295660F13
S1130DB0607E189F812D1124982F9695969596956F
S1130DC0492F440F842F880F880F840F281B262B4C
S1130DD032953F7040E4349FB0011124622B20E22D
S1130DE0929FC0011124682B89E00E947E0488230D
S1130DF0B1F0602F68706295607F0071000F000F82
S1130E00602B6D2B8AE00E947E0491E0811101C069
S1130E1090E0892F0DC080E00BC080E009C080E025
S1130E2007C080E005C080E003C080E001C080E02E
S1130E30DF91CF911F910F91EF90089581E00E946F
S1130E40C604089582E00E94030508950F931F933A
S1130E50CF93DF931F92CDB7DEB78C01BE016F5FD6
S1130E607F4F8FE00E949504882391F0F80110824F
S1130E70698160FF02C081E0808361FF04C0F801E2
S1130E8080818E5F80836C7F69838FE00E947E0403
S1130E900F90DF91CF911F910F910895CF93C82F99
S1130EA0F8940E94E8020E94EA028823D1F10E9489
S1130EB08A03CA30E9F118F4C93041F034C0CB30A8
S1130EC019F0CC30A9F12FC0C0E401C0C0E08EE419
S1130ED00E94060380E00E94060380E00E9406034D
S1130EE08C2F0E9406038FEC97E00197F1F700C066
S1130EF000000E94EA020E948A038EEB0E9406030D
S1130F0089E090E00E94530389E090E00E946A0324
S1130F1081110BC081E0909127019C1739F080E08A
S1130F2005C080E003C080E001C080E0789402C086
S1130F30C0E2CDCFCF910895F8940E94E8020E94B8
S1130F40EA02882339F00E948A0384E40E9406039B
S1130F5081E001C080E078940895CF92DF92EF920F
S1130F60FF920F931F93CF93DF93EC01F8940E94A9
S1130F70E8020E94EA02882309F442C00E948A031C
S1130F808EEB0E94060389E090E00E942C0389E026
S1130F9090E00E946A03811133C003E211E0F8017A
S1130FA08181908192959F70F0E18F9FB00111240F
S1130FB0692B807F782B072E000C880B990B0E94DD
S1130FC067116B017C01688379838A839B83F801B1
S1130FD060816F7070E080E090E00E94651120E015
S1130FE030E040E85DE30E941C12A70196010E94D4
S1130FF04C10688379838A839B83789481E002C050
S1131000789480E0DF91CF911F910F91FF90EF9042
S1131010DF90CF900895CF93DF93EC010E949C075B
S1131020882369F0F8940E942C038F3FE1F7CE01E6
S11310300E94AD07882319F0789481E002C0789467
S113104080E0DF91CF910895CF93DF9300D01F927A
S1131050CDB7DEB788E8898380E38A8382EA8B830D
S113106063E0CE0101960E94AA038FE39FE10197FA
S1131070F1F700C0000080912D010F900F900F90A8
S1131080DF91CF910895823029F0833031F081309F
S113109039F409C08BE094E2089580E094E2089565
S11310A080E090E0089586E194E20895823059F05A
S11310B0833081F08130A1F48FE39FE10197F1F750
S11310C000C0000008958FED9EE20197F1F700C083
S11310D0000008958FE59DE60197F1F700C0000038
S11310E008958F929F92AF92BF92CF92DF92EF9228
S11310F0FF920F931F93CF93DF93FC0120812095E0
S11311009181892F90E0982F8827092E000CAA0B33
S1131110BB0BA22B2281822B40E1E0E1F0E06FEFD8
S11311207FEF4150042F10E06C017D01042E04C0B8
S1131130F694E794D794C7940A94D2F79601EF01F2
S1131140C01BD10B5B0102C0B694A794CA95E2F709
S11311504501A12CB12C88229922AA22BB22D601B6
S1131160AA27B170AB2B31F081E3C82681E0D826E1
S11311709601317002C0220F331F0A95E2F7C901AC
S1131180A0E0B0E088299929AA29BB294111C9CF37
S113119021E0892B8A2B8B2B09F420E0822FDF910D
S11311A0CF911F910F91FF90EF90DF90CF90BF9060
S11311B0AF909F908F900895CF92DF92EF92FF921D
S11311C01F93CF93DF93EC016A017901662331F019
S11311D00E947108182F81110BC068C00E94710809
S11311E0182FCE0103960E947108182B19F55EC0C2
S11311F0688170E0762F66278981682B80E090E013
S11312000E94651120E03FEF4FE757E40E94BD10B4
S113121020E030E04FE253E40E941C1220E030E072
S113122044E352E40E944B10F6016083718382838D
S113123093833CC0688170E0762F66278981682B90
S113124080E090E00E94651120E03FEF4FE757E413
S11312500E94BD1020E030E04FE253E40E941C12D3
S113126020E030E044E352E40E944B10F601608336
S11312707183828393836B8170E0762F66278C81E0
S1131280682B80E090E00E94651120E03FEF4FE77B
S113129057E40E94BD1020E030E048EC52E40E9484
S11312A01C12F7016083718382839383812FDF9102
S11312B0CF911F91FF90EF90DF90CF900895AF9260
S11312C0BF92CF92DF92FF920F931F93CF93DF933E
S11312D0CDB7DEB727970FB6F894DEBF0FBECDBFEC
S11312E0182F6B015A01022F0E944308011105C0F7
S11312F00F2EF7E0FF2EF02D03C06894FF24F2F8C0
S11313000097D1F1FE01319627E0DF011D922A9565
S1131310E9F728E829839A838B8363E0CF010E944D
S1131320AA030E94A203882319F1812F0E94560860
S113133089E889836F2DCE0101960E94AA038FEC60
S113134097E00197F1F700C000006F2DCE010196E0
S11313500E94E303882371F09501A601602FCE015A
S113136002960E94DC0891E0811107C090E005C05C
S113137090E003C090E001C090E0892F27960FB65B
S1131380F894DEBF0FBECDBFDF91CF911F910F91B7
S1131390FF90DF90CF90BF90AF90089520E00E941F
S11313A05F090895549A5C9A55985D9A08955498E3
S11313B05C985D980895CF93DF939C019BB19F7EC9
S11313C0ABB1A0616623C1F1F901615070E06F5FB8
S11313D07F4F620F731F9BB9CFECD0E02197F1F7D9
S11313E000C0000040E050E0208130E0042E02C044
S11313F0359527950A94E2F7217033272295329583
S1131400307F3227207F3227292B2BB9CFECD0E035
S11314102197F1F700C000004F5F5F4F483051053E
S113142019F7ABB9CFECD0E02197F1F700C0000079
S113143031966E177F0779F6DF91CF9108954F9219
S11314405F927F928F929F92AF92BF92CF92DF92E0
S1131450EF92FF920F931F93CF93DF938C01F62E9D
S11314609A01A8EEB3E00E94041321E130E040E0C9
S113147050E00E94BD1249015A016F2D70E016160A
S113148017060CF04DC0412C512CC12CD12C7601E7
S113149021E0712C4D992AC087E391E00197F1F77F
S11314A000C00000F801E40DF51D108280E090E01A
S11314B039B135FB332730F9C32FA0E0DA2FAE0161
S11314C0082E02C0440F551F0A94E2F73081432BC3
S11314D04083AFECB0E01197F1F700C00000019633
S11314E08830910529F7BFEF4B1A5B0A3FEFC31A07
S11314F0D30AE30AF30A8DE28A95F1F70000822FFA
S11315008C149D04AE04BF0408F4872D882351F085
S1131510822F461657060CF0872D8111BBCF02C0CF
S1131520412C512C81E06415750509F080E0DF91B0
S1131530CF911F910F91FF90EF90DF90CF90BF90CC
S1131540AF909F908F907F905F904F900895579A9F
S11315505F9A8FEA94E00197F1F700C000005F986A
S113156092E09A95F1F700C05F9A579808950E9407
S1131570D2090E94A70A08950E94A70A0E94D709C7
S11315800895CF93DF9300D000D0CDB7DEB7198292
S11315901A821B821C8281E4898384E58A838DE01C
S11315A08B8363E0CE0101960E94DB0944EF51E096
S11315B064E0CE0101960E941F0A882351F08981BC
S11315C08F3431F481E09A819B3419F080E001C0BA
S11315D080E00F900F900F900F90DF91CF910895BE
S11315E0CF93DF93CDB7DEB7A0970FB6F894DEBFE5
S11315F00FBECDBFFE01319620E2DF011D922A9578
S1131600E9F721E4298324E52A8324E22B8323E5D3
S11316102C8326E42D832DE32E83662379F0A82FD3
S1131620B92F36968FEF860F9E01280F311D285F44
S11316303F4F8D918193E217F307D9F7FE01E60F2F
S1131640F11D8DE08783695FCE0101960E94DB095D
S113165048E95AE364E0CE0101960E941F0A8823F8
S113166051F089818F3431F481E09A819B3419F0EF
S113167080E001C080E0A0960FB6F894DEBF0FBEF4
S1131680CDBFDF91CF9108954F925F926F927F9279
S11316908F929F92AF92BF92CF92DF92EF92FF927E
S11316A00F931F93CF93DF9300D000D000D0CDB71A
S11316B0DEB77C0186E0E0E0F1E0DE011196019006
S11316C00D928A95E1F766E0CE0101960E94DB094E
S11316D044EF51E065E0CE0101960E941F0A882381
S11316E009F4A1C0F701108211821282138201E071
S11316F010E0D12C0F2EF9E04F2EF02D68945524D4
S113170053F80F2EF7E06F2EF02D0F2EF6E07F2EFC
S1131710F02D0F2EF5E08F2EF02D6894992492F879
S11317200F2EF3E0AF2EF02D6894BB24B1F8CC2437
S1131730C39402C01F5F0F5FE1E0F0E0EC0FFD1FF8
S1131740E10FF11DE0818E2F90E0FC01F097EA306B
S1131750F10508F067C0EB57FF4F0C94FE126C2D97
S113176011C06B2D0FC06A2D0DC0692D0BC0682DE3
S113177009C0672D07C0662D05C0652D03C0642D03
S113178001C06D2D11111AC070E080E090E00E943C
S1131790651120E030E040E251E40E941C129B01FC
S11317A0AC01F70160817181828193810E944C10A8
S11317B0F7016083718382839383BCCF1130A1F4DA
S11317C070E080E090E00E9465119B01AC01F7019C
S11317D060817181828193810E944C10F701608342
S11317E0718382839383A6CF70E080E090E00E94AF
S11317F065112DEC3CEC4CEC5DE30E941C129B014A
S1131800AC01F70160817181828193810E944C1047
S1131810F7016083718382839383033008F48ACF52
S113182081E001C080E026960FB6F894DEBF0FBEBB
S1131830CDBFDF91CF911F910F91FF90EF90DF907B
S1131840CF90BF90AF909F908F907F906F905F905C
S11318504F900895CF93DF93CDB7DEB728970FB697
S1131860F894DEBF0FBECDBF98E0E3E1F1E0DE0106
S1131870119601900D929A95E1F7811103C080E3CE
S11318808F8309C0813019F481E38F8304C08230CF
S1131890C9F482E38F8368E0CE0101960E94DB09DC
S11318A044EF51E064E0CE0101960E941F0A8823B0
S11318B061F089818F3441F481E09A819B3429F06D
S11318C080E003C080E001C080E028960FB6F89461
S11318D0DEBF0FBECDBFDF91CF910895CF93DF93CD
S11318E000D000D000D0CDB7DEB786E0EBE1F1E068
S11318F0DE01119601900D928A95E1F766E0CE0122
S113190001960E94DB0944EF51E064E0CE010196A8
S11319100E941F0A882351F089818F3431F481E0B9
S11319209A819B3419F080E001C080E026960FB6BE
S1131930F894DEBF0FBECDBFDF91CF9108951F9203
S11319400F920FB60F9211240F900FBE0F901F909D
S11319501895E89A83B7817F846083BF789483B7AE
S1131960816083BF889583B78E7F83BFF894E8989E
S11319700895CF93C82F0E942401C13079F420E642
S11319803AEE40E050E06AEF70E08AEF90E00E94A7
S11319903A010E9430010E94A90C10C0C23071F4B7
S11319A020E63AEE40E050E068EC70E088EE93E028
S11319B00E943A010E9430010E94A90CCF9108951F
S11319C0CF92DF92EF920F93CF93DF931F92CDB715
S11319D0DEB7F894109269000E9424010E94340139
S11319E00E94A301811103C081E00E94B90C0E94EE
S11319F0B001811103C081E00E94B90C0E948E03E2
S1131A000E942A05811103C081E00E94B90C0E9442
S1131A104B05811103C081E00E94B90C0F2EF5E142
S1131A20CF2ED12CF02DEE24E39403E027E040E008
S1131A3060E080E00E947905811103C081E00E948A
S1131A40B90CE12C0CE021E040E060E080E00E9471
S1131A505506811103C081E00E94B90C0E941E0743
S1131A60811103C081E00E94B90C0E9422078111F8
S1131A7003C081E00E94B90C0E946205811103C079
S1131A8081E00E94B90C0E946205882331F0CE01E6
S1131A9001960E942607811103C081E00E94B90CBF
S1131AA01092BC000E94B70A0E94C10A811103C0AF
S1131AB081E00E94B90C81E00E942A0C811103C0CC
S1131AC081E00E94B90C0E946E0C811103C081E078
S1131AD00E94B90C0E94BC0A0E9437010F90DF914A
S1131AE0CF910F91EF90DF90CF9008952F923F9276
S1131AF04F925F926F927F928F929F92AF92BF921A
S1131B00CF92DF92EF92FF920F931F93CF93DF93C5
S1131B10CDB7DEB7CC54D1090FB6F894DEBF0FBEF3
S1131B20CDBF2B968FAF2B9780E090E0AAECB2E468
S1131B3088AB99ABAAABBBAB0E9434012FEF30E763
S1131B4042E0215030404040E1F700C000000E94D4
S1131B5037010E94BE006B017C010E94F4006AAF51
S1131B607BAF8CAF9DAF0E94C001AE014B5D5F4F58
S1131B706AE080E00E947802811101C01DA20E94E7
S1131B80E1010E948E038FEC97E00197F1F700C00A
S1131B9000000E942408AE01485D5F4FBE01645DF1
S1131BA07F4F83E00E94CE0981110CC080E090E059
S1131BB0AAECB2E488A799A7AAA7BBA78CA79DA75C
S1131BC0AEA7BFA71092BC008AE00E944E078823EC
S1131BD079F0CE01C0960E940B08811111C080E0FB
S1131BE090E0AAECB2E488AB99ABAAABBBAB08C05B
S1131BF080E090E0AAECB2E488AB99ABAAABBBABB3
S1131C000E94B70A10E003C01F5F133031F00E9436
S1131C10C10A8823C9F3133049F42B969FAD2B973F
S1131C20992309F4FCC182E00E94B90CCE01C49648
S1131C300E94440B811108C080E090E0AAECB2E459
S1131C408CAB9DABAEABBFAB20E030E048EC52E4D4
S1131C506CA57DA58EA59FA50E944C102B013C016F
S1131C600E942F11B62E70E080E090E00E94651172
S1131C709B01AC01C301B2010E944B1020E030E093
S1131C8048EC52E40E941C126CA77DA78EA79FA764
S1131C900E942F1109E110E0CB01B8010E94A912A2
S1131CA06370862E20E030E048EC52E468A979A9FC
S1131CB08AA99BA90E944C102B013C010E942F1160
S1131CC0A62E70E080E090E00E9465119B01AC01BB
S1131CD0C301B2010E944B1020E030E048EC52E412
S1131CE00E941C1268AB79AB8AAB9BAB0E942F118C
S1131CF0CB01B8010E94A9126370362E20E030E0B7
S1131D0048EC52E46CA97DA98EA99FA90E944C10AD
S1131D102B013C010E942F11962E70E080E090E090
S1131D200E9465119B01AC01C301B2010E944B10DA
S1131D3020E030E048EC52E40E941C126CAB7DAB16
S1131D408EAB9FAB0E942F11CB01B8010E94A91248
S1131D506370662E68A579A58AA59BA50E94361195
S1131D60762E20E030E040E250E4C701B6010E9444
S1131D70B81088239CF020E030E040E950E4C7012B
S1131D80B6010E941712181674F020E030E040E209
S1131D9050E4C701B6010E944B1009C060E070E036
S1131DA080E290E404C060E070E080E990E420E028
S1131DB030E040E054E40E941C120E94361121E0FD
S1131DC029839B0136952795369527952A83637039
S1131DD0E0E46E9F8001112420E030E048E951E402
S1131DE06AAD7BAD8CAD9DAD0E941C120E94361174
S1131DF0062B0B838DA18C838EA18D838FA18E8363
S1131E007F82B886A9869A86F0E18F9E40011124CC
S1131E10330C330C832886288B861C869E012F5F07
S1131E203F4F2A963FAF2EAF2A97245F3F4FAE0114
S1131E304B5D5F4F59AF48AFB0C02896EEADFFADD4
S1131E402897082E02C0F595E7950A94E2F7EF70FB
S1131E50FF27E157FF4F0C94FE1220E3EEADFFADD8
S1131E60208344C021E3EAADFBAD20833FC022E3DD
S1131E702296EEADFFAD2297208338C023E324964B
S1131E80EEADFFAD2497208331C024E32696EEAD5A
S1131E90FFAD269720832AC025E3F101208326C0C5
S1131EA026E3F201208322C027E3F30120831EC02E
S1131EB028E3F40120831AC039E33C9317C021E4DA
S1131EC0FA01208313C022E4FB0120830FC023E422
S1131ED0F80120830BC024E4F701208307C025E424
S1131EE0F601208303C026E4F501208304972EAD78
S1131EF03FAD2F5F3F4F3FAF2EAF2AAD3BAD2F5FBE
S1131F003F4F3BAF2AAF22962EAD3FAD22972F5FB6
S1131F103F4F22963FAF2EAF229724962EAD3FAD72
S1131F2024972F5F3F4F24963FAF2EAF24972696DA
S1131F302EAD3FAD26972F5F3F4F26963FAF2EAF76
S1131F4026973FEF231A330AEFEF4E1A5E0AFFEF8C
S1131F506F1A7F0A2FEF821A920A11964F5F5F4F12
S1131F606F5F7F4F0F5F1F4F3FEFE31AF30AEFEFEF
S1131F70CE1ADE0AFFEFAF1ABF0A8C3F2FEF92078B
S1131F8009F05BCF2D962EAD3FAD2D972E5F3F4FC1
S1131F9048AD59AD4217530789F12A96EEADFFAD0E
S1131FA02A9781912A96FFAFEEAF2A97482F50E0E7
S1131FB028965FAF4EAF28975901690179018901CD
S1131FC0B901A901D901490139012901190126964B
S1131FD03FAF2EAF269724963FAF2EAF249722967D
S1131FE03FAF2EAF22973BAF2AAF3FAF2EAF84E077
S1131FF090E02D963FAF2EAF2D971FCF68E1CE0115
S11320000D960E94F00A811108C02B965FAD2B97A4
S1132010552329F082E00E94B90C0E94BC0AC45BDB
S1132020DF4F0FB6F894DEBF0FBECDBFDF91CF9167
S11320301F910F91FF90EF90DF90CF90BF90AF90E2
S11320409F908F907F906F905F904F903F902F90D4
S11320500895CF93DF931F92CDB7DEB70E948E030E
S1132060CE0101960E9426071092BC000F90DF91CA
S1132070CF9108950E94E00C81E00E94760D0E94A9
S113208030010E94A90C0E9424010E94291080E0C2
S11320900E94760DF4CF5058BB27AA270E946310E4
S11320A00C94DD110E94CF1138F00E94D61120F05B
S11320B039F49F3F19F426F40C94CC110EF4E095F6
S11320C0E7FB0C94C611E92F0E94EE1158F3BA17DE
S11320D0620773078407950720F079F4A6F50C943A
S11320E010120EF4E0950B2EBA2FA02D0B01B9019E
S11320F090010C01CA01A0011124FF27591B99F07A
S1132100593F50F4503E68F11A16F040A22F232F85
S1132110342F4427585FF3CF469537952795A795D5
S1132120F0405395C9F77EF41F16BA0B620B730B7C
S1132130840BBAF09150A1F0FF0FBB1F661F771FED
S1132140881FC2F70EC0BA0F621F731F841F48F4A2
S1132150879577956795B795F7959E3F08F0B0CF2B
S11321609395880F08F09927EE0F97958795089512
S11321700E94A21108F481E008950E94D1100C94E9
S1132180DD110E94D61158F00E94CF1140F029F4BD
S11321905F3F29F00C94C61151110C9411120C9448
S11321A0CC110E94EE1168F39923B1F3552391F3F6
S11321B0951B550BBB27AA2762177307840738F0B2
S11321C09F5F5F4F220F331F441FAA1FA9F335D00F
S11321D00E2E3AF0E0E832D091505040E695001CC3
S11321E0CAF72BD0FE2F29D0660F771F881FBB1F7D
S11321F0261737074807AB07B0E809F0BB0B802D5B
S1132200BF01FF2793585F4F3AF09E3F510578F086
S11322100C94C6110C9411125F3FE4F3983ED4F36E
S1132220869577956795B795F7959F5FC9F7880F5A
S1132230911D9695879597F90895E1E0660F771FAC
S1132240881FBB1F621773078407BA0720F0621B3D
S1132250730B840BBA0BEE1F88F7E09508950E9468
S113226036116894B1110C94111208950E94F6115C
S113227088F09F5798F0B92F9927B751B0F0E1F043
S1132280660F771F881F991F1AF0BA95C9F714C0F3
S1132290B13091F00E941012B1E008950C94101224
S11322A0672F782F8827B85F39F0B93FCCF386952C
S11322B077956795B395D9F73EF490958095709589
S11322C061957F4F8F4F9F4F0895E89409C097FB06
S11322D03EF490958095709561957F4F8F4F9F4FF9
S11322E09923A9F0F92F96E9BB279395F69587953D
S11322F077956795B795F111F8CFFAF4BB0F11F400
S113230060FF1BC06F5F7F4F8F4F9F4F16C08823A6
S113231011F096E911C0772321F09EE8872F762FDC
S113232005C0662371F096E8862F70E060E02AF01D
S11323309A95660F771F881FDAF7880F9695879509
S113234097F90895990F0008550FAA0BE0E8FEEFDE
S113235016161706E807F907C0F012161306E40765
S1132360F50798F0621B730B840B950B39F40A265E
S113237061F0232B242B252B21F408950A2609F43C
S1132380A140A6958FEF811D811D089597F99F6740
S113239080E870E060E008959FEF80EC08950024E9
S11323A00A941616170618060906089500240A94B6
S11323B012161306140605060895092E0394000C3C
S11323C011F4882352F0BB0F40F4BF2B11F460FFCB
S11323D004C06F5F7F4F8F4F9F4F089557FD9058F4
S11323E0440F551F59F05F3F71F04795880F97FBD5
S11323F0991F61F09F3F79F087950895121613068F
S11324001406551FF2CF4695F1DF08C016161706BD
S11324101806991FF1CF86957105610508940895F2
S1132420E894BB2766277727CB0197F908950E9484
S1132430A21108F48FEF08950E942F120C94DD115D
S11324400E94CF1138F00E94D61120F0952311F08C
S11324500C94C6110C94CC1111240C9411120E94EA
S1132460EE1170F3959FC1F3950F50E0551F629FD5
S1132470F001729FBB27F00DB11D639FAA27F00DD9
S1132480B11DAA1F649F6627B00DA11D661F829F00
S11324902227B00DA11D621F739FB00DA11D621FE5
S11324A0839FA00D611D221F749F3327A00D611D02
S11324B0231F849F600D211D822F762F6A2F1124E4
S11324C09F5750409AF0F1F088234AF0EE0FFF1F17
S11324D0BB1F661F771F881F91505040A9F79E3F6E
S11324E0510580F00C94C6110C9411125F3FE4F373
S11324F0983ED4F3869577956795B795F795E795C4
S11325009F5FC1F7FE2B880F911D9695879597F9CC
S11325100895991B79E004C0991F961708F0961B3B
S1132520881F7A95C9F780950895AA1BBB1B51E1B2
S113253007C0AA1FBB1FA617B70710F0A61BB70B2F
S1132540881F991F5A95A9F780959095BC01CD01D4
S1132550089597FB072E16F4009407D077FD09D051
S11325600E94951207FC05D03EF4909581959F4FEB
S11325700895709561957F4F0895A1E21A2EAA1BC4
S1132580BB1BFD010DC0AA1FBB1FEE1FFF1FA2171F
S1132590B307E407F50720F0A21BB30BE40BF50B1C
S11325A0661F771F881F991F1A9469F760957095A5
S11325B0809590959B01AC01BD01CF010895052E36
S11325C097FB1EF400940E94F61257FD07D00E9458
S11325D0BD1207FC03D04EF40C94F61250954095AE
S11325E0309521953F4F4F4F5F4F089590958095BB
S11325F0709561957F4F8F4F9F4F0895EE0FFF1F8A
S11326000590F491E02D0994A29FB001B39FC001FD
S1132610A39F700D811D1124911DB29F700D811D0A
S10D26201124911D0895F894FFCFD2
S113262A415424543F0D415424563F0D41542454DB
S113263A523F0D41542454523D000D4154245752E3
S105264A0D007D
S9030000FC
