S01500006E6F64655F736F6674776172652E737265639F
S11300000C9434000C9451000C9451000C94510045
S11300100C9451000C9451000C9451000C94510018
S11300200C9451000C9451000C9451000C94510008
S11300300C9451000C9451000C9451000C945100F8
S11300400C9451000C9451000C9451000C945100E8
S11300500C9451000C9451000C9451000C945100D8
S11300600C94F9020C94510011241FBECFEFD8E078
S1130070DEBFCDBF11E0A0E0B1E0E8E8FCE102C0E2
S113008005900D92A431B107D9F721E0A4E1B1E0C4
S113009001C01D92A932B207E1F70E947B0B0C94B8
S11300A0420E0C94000087E080937C00EAE7F0E0C5
S11300B086E8808310927B008081806480838081C5
S11300C084FFFDCFEAE7F0E080818F778083809121
S11300D078006091790070E0762F6627680F711DB3
S11300E0072E000C880B990B0E94A80C23E333E322
S11300F043E550E40E945D0D20E030E040E85AE31F
S11301000E945D0D20E030E0A9010E94FE0B0895DD
S113011086E080937C00EAE7F0E086E88083109232
S11301207B00808180648083808184FFFDCFEAE747
S1130130F0E080818F7780838091780060917900EE
S113014070E0762F6627680F711D072E000C880B50
S1130150990B0E94A80C23E333E343E550E40E9487
S11301605D0D20E030E040E85AE30E945D0D089503
S1130170389A409A2FEF80E792E0215080409040D7
S1130180E1F700C000000895389840980895569A01
S11301905E980895569A5E9A08954F925F926F9270
S11301A07F928F929F92AF92BF92CF92DF92EF9203
S11301B0FF920F931F9369017A01569A232B242BE4
S11301C0252B09F443C040E000E010E098012C0125
S11301D0612C712CF1E04B01A12CB12CE0E0442303
S11301E0B9F0080D191D2A1D3B1D5E986115710596
S11301F029F140E050E0AFECB7E01197F1F700C00F
S113020000004F5F5F4F64177507A9F74E2F19C0A1
S1130210040D151D261D371D5E9A009789F040E0D8
S113022050E0AFECB7E01197F1F700C000004F5F6A
S11302305F4F84179507A9F74F2F03C04E2F01C0B6
S11302404F2F0C151D052E053F0548F21F910F91E8
S1130250FF90EF90DF90CF90BF90AF909F908F90E2
S11302607F906F905F904F900895E1E6F0E0808179
S11302708068808380E8808382E08A95F1F700C0FB
S113028081E00895CF930E945300C1E020E030E064
S113029040E650E40E94F90B18160CF4C0E08C2FD1
S11302A0CF910895229A2A9823982B981B9B03C0D8
S11302B000001B99FDCF000008951B9903C00000A6
S11302C081E0089580E00895CF93C82F229A2A9858
S11302D001C000000E945D018823D9F38C2F90E0B7
S11302E0499620E030E02A9A42E04A95F1F700C0AE
S11302F02A9842E04A95F1F700C02F5F3F4F281734
S113030039078CF3CF910895CF93C82F0E945D01D4
S11303108823E1F328E130E080E090E0DC012A9AD0
S113032042E04A95F1F700C0880F991FAA1FBB1F2E
S11303301B9981602A9842E04A95F1F700C0215048
S1130340310969F720E02A9A32E03A95F1F700C0C2
S11303502A9842E04A95F1F700C02F5FC21798F738
S1130360A7FDBF6FBC01CD01CF910895CF93C62FD8
S11303700E9464018C2F0E948401CF910895CF9232
S1130380DF92EF92FF921F93CF93DF93182FD62F14
S1130390682F0E94B6016B017C01DD2359F0C0E097
S11303A0812F0E948401C60ED71EE81EF91ECF5F5E
S11303B0DC13F6CF2D2F30E040E050E0C701B6014A
S11303C00E94140ECA01B901DF91CF911F91FF90D1
S11303D0EF90DF90CF900895399A08953998089551
S11303E086B1869581700895419808950E94EC0124
S11303F08FEB93E00197F1F700C000000E94EE013B
S11304009AEB9A95F1F700C00E94F001E3E3F3E060
S11304103197F1F700C0000008951F93CF93DF9345
S1130420182FC8E0D0E010FF0CC00E94EC0180E15E
S11304308A95F1F70E94EE018AEA8A95F1F700C0E5
S11304400BC00E94EC0180EA8A95F1F70E94EE014C
S11304508AE18A95F1F700C01695219721F7DF917B
S1130460CF911F9108951F93CF93DF93C0E0D0E005
S113047010E00E94EC0120E12A95F1F70E94EE01C0
S113048088E18A95F1F70E94F00190E00C2E02C0F9
S1130490880F991F0A94E2F7182B82E98A95F1F7DD
S11304A000C02196C830D10521F7812FDF91CF916B
S11304B01F91089518161906DCF4E4E1F1E0BC017B
S11304C06C5E7E4F80E05CE840E09191892728E0F3
S11304D030E0982F969580FD02C0842F01C0852FAF
S11304E0892721503109A9F7E617F70771F708950D
S11304F080E008958CEC0E940D02089580E28093C0
S1130500B800E9EBF0E0808110828FEF8093BB00AC
S113051084E08093BC001092BA00789481E08093C8
S11305201E010895ECEBF0E0808180FDFDCF809109
S11305301E010895CF93DF93EC0160931D01ECEB52
S1130540F0E0908190FDFDCF988190FF0BC09093D7
S11305501F016B3020F481E080931E011EC01092B5
S11305601E011EC06B30B0F4662381F0FE01AFE1C2
S1130570B1E06150262F30E02F5F3F4FCE01820F54
S1130580931F21912D93E817F907D9F781E0809300
S11305901E0103C010921E0103C085EA8093BC00B3
S11305A0DF91CF910895AC01ECEBF0E0908190FDE8
S11305B0FDCF90911E019923B1F06B30B0F4662306
S11305C0B1F0AFE1B1E0FA016150262F30E02F5FC6
S11305D03F4FCA01820F931F2D912193E817F9070A
S11305E0D9F781E0089580E0089580E0089581E0DE
S11305F008951F920F920FB60F9211248F9380913A
S1130600B90084E08093BC0010921E018F910F907A
S11306100FBE0F901F901895CF93DF9300D01F92B9
S1130620CDB7DEB791ED99838A836B8363E0CE0106
S113063001960E949A020E9492020F900F900F90CE
S1130640DF91CF910895CF93DF9300D0CDB7DEB77C
S113065090ED99838A8362E0CE0101960E949A020A
S11306600E949202882349F081ED898362E0CE01E1
S113067001960E949A020E9492020F900F90DF91BD
S1130680CF9108950F931F93CF93DF9300D0CDB7ED
S1130690DEB71FEF180F123050F5BE016F5F7F4FAA
S11306A08FE00E942303882319F161E070E0CB01FD
S11306B002C0880F991F1A95E2F78C01682F609584
S11306C08981682369838FE00E940C03882381F069
S11306D0BE016E5F7F4F8EE00E942303882341F0AA
S11306E06A81602B6A838EE00E940C0301C080E063
S11306F00F900F90DF91CF911F910F9108951F9349
S1130700CF93DF931F92CDB7DEB71FEF180F1230D0
S1130710B8F4BE016F5F7F4F8EE00E9423038823ED
S113072081F061E070E002C0660F771F1A95E2F76E
S113073060958981682369838EE00E940C0301C05F
S113074080E00F90DF91CF911F910895CF93DF93B5
S113075000D01F92CDB7DEB780ED89838EE08A8307
S11307601B8263E0CE0101960E949A022FE78AE180
S113077096E0215080409040E1F700C000000E94C4
S113078092020F900F900F90DF91CF910895CF9325
S1130790DF931F92CDB7DEB7BE016F5F7F4F8FE04F
S11307A00E942303882331F06981677F69838FE086
S11307B00E940C030F90DF91CF910895CF93DF93A4
S11307C01F92CDB7DEB7BE016F5F7F4F8EE00E94F0
S11307D02303882331F06981646069838EE00E9479
S11307E00C030F90DF91CF910895EF920F931F9315
S11307F0CF93DF93C62F142FD22F8C3308F0B1C0C0
S11308006C3308F0B0C0483108F0AFC0EE2031F0CE
S11308109FEF920F9730C8F080E0AAC09FEF920F2D
S11308209F3108F0A4C09DEC299F912D1124969529
S11308309695969520E1929FA0011124990F292F56
S1130840220F220F920FD91BD42B2DEC829F212D26
S11308501124922F969596959695392F330F232F21
S1130860220F220F230F821B40E8049FB0011124A2
S1130870862B40E1949F90011124682F622B87E01E
S11308800E940C03882309F466C0602F627062958D
S1130890660F660F607C8DECC89F812D11248695B0
S11308A086958695282F220F922F990F990F920FD4
S11308B0C91BC62B90E1899FB00111246C2B88E0E1
S11308C00E940C03882309F448C08DEC189F312D35
S11308D01124232F22952F70220F220F922F990F6C
S11308E0990F290F121B212F602F64706295660FD8
S11308F0607E189F812D1124982F96959695969534
S1130900492F440F842F880F880F840F281B262B10
S113091032953F7040E4349FB0011124622B20E2F1
S1130920929FC0011124682B89E00E940C03882344
S1130930B1F0602F68706295607F0071000F000F46
S1130940602B6D2B8AE00E940C0391E0811101C0A1
S113095090E0892F0DC080E00BC080E009C080E0EA
S113096007C080E005C080E003C080E001C080E0F3
S1130970DF91CF911F910F91EF90089581E00E9434
S11309804203089582E00E947F0308950F931F930A
S1130990CF93DF931F92CDB7DEB78C01BE016F5F9B
S11309A07F4F8FE00E942303882391F0F801108287
S11309B0698160FF02C081E0808361FF04C0F801A7
S11309C080818E5F80836C7F69838FE00E940C033B
S11309D00F90DF91CF911F910F910895F8940E9489
S11309E0F4010E94F60181110E947A02789480E059
S11309F00895F8940E94F4010E94F601882339F0C6
S1130A000E947A0284E40E940D0281E001C080E029
S1130A1078940895CF92DF92EF92FF920F931F93F1
S1130A20CF93DF93EC01F8940E94F4010E94F60145
S1130A30882309F442C00E947A028EEB0E940D02C0
S1130A4089E090E00E94330289E090E00E945A021B
S1130A50811133C004E111E0F80181819081929504
S1130A609F70F0E18F9FB0011124692B807F782B58
S1130A70072E000C880B990B0E94A80C6B017C01BB
S1130A80688379838A839B83F80160816F7070E047
S1130A9080E090E00E94A60C20E030E040E85DE3B6
S1130AA00E945D0DA70196010E948D0B68837983D6
S1130AB08A839B83789481E002C0789480E0DF91FC
S1130AC0CF911F910F91FF90EF90DF90CF900895F9
S1130AD0CF93DF93EC010E94F904882369F0F89422
S1130AE00E9433028F3FE1F7CE010E940A0588235A
S1130AF019F0789481E002C0789480E0DF91CF917E
S1130B000895CF93DF9300D01F92CDB7DEB788E866
S1130B10898380E38A8382EA8B8363E0CE01019632
S1130B200E949A028FE39FE10197F1F700C0000051
S1130B3080911E010F900F900F90DF91CF91089537
S1130B40823029F0833031F0813039F409C08BE0F0
S1130B509CE2089580E09CE2089580E090E008958E
S1130B6086E19CE20895823059F0833081F081302F
S1130B70A1F48FE39FE10197F1F700C0000008950D
S1130B808FED9EE20197F1F700C0000008958FE514
S1130B909DE60197F1F700C0000008958F929F929F
S1130BA0AF92BF92CF92DF92EF92FF920F931F9377
S1130BB0CF93DF93FC01208120959085892F90E0CD
S1130BC0982F8827092E000CAA0BBB0BA22B22817D
S1130BD0822B40E1E0E1F0E06FEF7FEF4150042F22
S1130BE010E06C017D01042E04C0F694E794D794C0
S1130BF0C7940A94D2F79601EF01C01BD10B5B0195
S1130C0002C0B694A794CA95E2F74501A12CB12C71
S1130C1088229922AA22BB22D601AA27B170AB2B23
S1130C2031F081E3C82681E0D8269601317002C0F4
S1130C30220F331F0A95E2F7C901A0E0B0E088292A
S1130C409929AA29BB294111C9CF21E0892B8A2BD3
S1130C508B2B09F020E0822FDF91CF911F910F9110
S1130C60FF90EF90DF90CF90BF90AF909F908F90C8
S1130C700895CF92DF92EF92FF921F93CF93DF9369
S1130C80EC016A017901662331F00E94CE05182F28
S1130C9081110BC06EC00E94CE05182FCE010396A1
S1130CA00E94CE05182329F564C0688170E0762F70
S1130CB066278981682B072E000C880B990B0E94EC
S1130CC0A80C20E03FEF4FE757E40E94FE0B20E022
S1130CD030E04FE253E40E945D0D20E030E044E355
S1130CE052E40E948C0BF6016083718382839383A8
S1130CF040C0688170E0762F66278981682B072EB3
S1130D00000C880B990B0E94A80C20E03FEF4FE7E2
S1130D1057E40E94FE0B20E030E04FE253E40E94CF
S1130D205D0D20E030E044E352E40E948C0BF601B8
S1130D3060837183828393836C8170E0762F66274E
S1130D408D81682B072E000C880B990B0E94A80C30
S1130D5020E03FEF4FE757E40E94FE0B20E030E035
S1130D6048EC52E40E945D0DF70160837183828335
S1130D709383812FDF91CF911F91FF90EF90DF90AC
S1130D80CF900895AF92BF92CF92DF92FF920F93CC
S1130D901F93CF93DF9300D000D000D0CDB7DEB740
S1130DA0182F6B015A01022F0E94A005011105C0E2
S1130DB00F2EF6E0FF2EF02D04C00F2EF3E0FF2ED1
S1130DC0F02D0097D9F1FE01319626E0DF011D9246
S1130DD02A95E9F728E829838A839B8363E0CF0176
S1130DE00E949A020E949202882321F1812F0E947C
S1130DF0B30589E8898361E06F0DCE0101960E94F5
S1130E009A028FEC97E00197F1F700C000006F2D74
S1130E10CE0101960E94D302882371F09501A601A8
S1130E20602FCE0101960E94390691E0811107C01E
S1130E3090E005C090E003C090E001C090E0892FED
S1130E4026960FB6F894DEBF0FBECDBFDF91CF91CB
S1130E501F910F91FF90DF90CF90BF90AF900895B6
S1130E6020E00E94C2060895549A5C9A55985D9AAF
S1130E70089554985C985D980895CF93DF939C01EE
S1130E809BB19F7EABB1A061662391F1F9016150E2
S1130E9070E06F5F7F4F620F731F9BB9CFECD0E0A0
S1130EA02197F1F700C0000040E050E0208130E0DD
S1130EB0042E02C0359527950A94E2F72170332752
S1130EC022953295307F3227207F3227292B2BB968
S1130ED04F5F5F4F4830510549F7ABB9CFECD0E0D5
S1130EE02197F1F700C0000031966E177F07A9F62D
S1130EF0DF91CF910895CF92DF92EF92FF920F93FB
S1130F001F93CF93DF93EC01E62E9A01A8EEB3E092
S1130F100E94330E611571058540910508F067C084
S1130F2088EE93E0489F9001499F300D589F300D03
S1130F301124C90160E075E00E94CA0DD62EADEC03
S1130F40BCEC0E94330E9695879596958795C82E8E
S1130F50F12C1E141F040CF042C060E000E010E00D
S1130F6070E05D9927C087E391E00197F1F700C035
S1130F700000DE01A00FB11F20E030E09BB195FB23
S1130F80EE27E0F9F0E0AF01022E02C0440F551F36
S1130F900A94E2F79C91492B4C938FEC90E00197D3
S1130FA0F1F700C000002F5F3F4F2830310531F7C3
S1130FB00F5F1F4F7F5F9DE09A95F1F70000C71602
S1130FC020F00E151F056CF20CC06F5FD61648F0AA
S1130FD00E151F0534F40E151F0514F202C000E0AF
S1130FE010E081E0E016F10619F080E001C080E035
S1130FF0DF91CF911F910F91FF90EF90DF90CF90F1
S11310000895579A5F9A8FEC97E00197F1F700C023
S113101000005F989AE19A95F1F700C05F9A0895ED
S11310200E9434070E94010808950E9401080E944A
S113103039070895CF93DF9300D000D0CDB7DEB742
S113104019821A821B821C8281E4898384E58A8343
S11310508DE08B8363E0CE0101960E943D0744EF4F
S113106051E064E0CE0101960E947B07882351F091
S113107089818F3431F481E09A819B3419F080E0C6
S113108001C080E00F900F900F900F90DF91CF91EF
S11310900895CF93DF93CDB7DEB764970FB6F89476
S11310A0DEBF0FBECDBFFE01319624E1DF011D92EC
S11310B02A95E9F721E4298324E52A8324E22B8372
S11310C023E52C8326E42D832DE32E83662379F0F8
S11310D0A82FB92F36968FEF860F9E01280F311D4A
S11310E0285F3F4F8D918193E217F307D9F7FE01F3
S11310F0E60FF11D8DE08783695FCE0101960E94A2
S11311003D0740E157E264E0CE0101960E947B076F
S1131110882351F089818F3431F481E09A819B34A2
S113112019F080E001C080E064960FB6F894DEBF49
S11311300FBECDBFDF91CF9108950F931F93CF932F
S1131140DF9300D000D000D0CDB7DEB78C0186E0AD
S1131150E0E0F1E0DE01119601900D928A95E1F74D
S113116066E0CE0101960E943D0744EF51E064E041
S1131170CE0101960E947B078823C9F06A8170E042
S1131180762F66278981680F711D072E000C880B46
S1131190990B0E94A80C20E030E040E251E40E9448
S11311A0FE0BF801608371838283938381E026962A
S11311B00FB6F894DEBF0FBECDBFDF91CF911F9164
S11311C00F910895CF93DF93CDB7DEB728970FB66D
S11311D0F894DEBF0FBECDBF91E4998394E59A8362
S11311E024E22B839C8392E59D839DE39E838F83DE
S11311F08DE0888768E0CE0101960E943D0744EFA8
S113120051E064E0CE0101960E947B07882351F0EF
S113121089818F3431F481E09A81913319F080E02F
S113122001C080E028960FB6F894DEBF0FBECDBF94
S1131230DF91CF91089583B7817F846083BF7894D1
S113124083B7816083BF889583B78E7F83BFF8940B
S11312500895CF93C82F0E94B800C13079F420E6D6
S11312603AEE40E050E06AEF70E08AEF90E00E94CE
S1131270CD000E94C4000E941B0910C0C23071F44A
S113128020E63AEE40E050E068EE73E088EE93E04A
S11312900E94CD000E94C4000E941B09CF910895B2
S11312A0EF920F93CF93DF931F92CDB7DEB7F894ED
S11312B00E94B8000E94C7000E943501811103C03A
S11312C081E00E9429090E944201811103C081E04A
S11312D00E9429090E947E020E94A603811103C074
S11312E081E00E9429090E94C703811103C081E0A3
S11312F00E94290981E00E942909E12C0CE020E0E8
S113130040E060E080E00E94F503811103C081E0C9
S11313100E9429090E94BE04811103C081E00E9439
S113132029090E94C204811103C081E00E94290995
S11313300E94DE03882331F0CE0101960E94C60488
S1131340811103C081E00E9429091092BC000E940F
S113135010080E941A08811103C081E00E94290923
S113136082E00E94E208811103C081E00E94290901
S11313700E9415080E94CA000F90DF91CF910F912F
S1131380EF9008952F923F924F925F926F927F92C7
S11313908F929F92AF92BF92CF92DF92EF92FF9281
S11313A00F931F93CF93DF93CDB7DEB7A4970FB6F8
S11313B0F894DEBF0FBECDBFB82E0E9453006B0160
S11313C07C010E9488006D8F7E8F8F8F98A30E946E
S11313D052010E945D018823E1F36AE080E00E94EB
S11313E0BF01A62E79A38AA39BA30E947E028FEC41
S11313F097E00197F1F700C000000E948105AE015B
S11314004F5E5F4FBE01635F7F4F83E00E943007F2
S113141081110CC080E090E0AAECB2E48D879E8735
S1131420AF87B88B898B9A8BAB8BBC8B1092BC002B
S11314308AE00E94EE04882379F0CE0145960E944A
S11314406805811111C080E090E0AAECB2E48D8BB4
S11314509E8BAF8BB88F08C080E090E0AAECB2E41A
S11314608D8B9E8BAF8BB88F0E94100810E003C049
S11314701F5F133031F00E941A088823C9F3133018
S113148031F4BB2009F40DC182E00E942909CE0188
S113149049960E949D08811108C080E090E0AAEC62
S11314A0B2E4898F9A8FAB8FBC8F20E030E048EC98
S11314B052E469897A898B899C890E948D0B2B015E
S11314C03C010E94700C962E70E080E090E00E9437
S11314D0A60C9B01AC01C301B2010E948C0B698B69
S11314E07A8B8B8B9C8B20E030E04AE754E40E949B
S11314F05D0D0E94770C862F90E001E712E0B801A1
S11315000E94DE0D6CA320E030E048EC52E46D89CB
S11315107E898F89988D0E948D0B2B013C010E943E
S1131520700C862E70E080E090E00E94A60C9B0177
S1131530AC01C301B2010E948C0B6D8B7E8B8F8B2F
S1131540988F20E030E04AE754E40E945D0D0E9449
S1131550770C862F90E0B8010E94DE0D262E20E045
S113156030E048EC52E4698D7A8D8B8D9C8D0E941D
S11315708D0B2B013C010E94700C362E70E080E034
S113158090E00E94A60C9B01AC01C301B2010E9431
S11315908C0B698F7A8F8B8F9C8F20E030E04AE729
S11315A054E40E945D0D0E94770C862F90E0B801F0
S11315B00E94DE0D062F6D857E858F8598890E9499
S11315C0700C162F20E030E040E250E4C701B60171
S11315D00E94F90B88239CF020E030E040E950E4BD
S11315E0C701B6010E94580D181674F020E030E0CF
S11315F040E250E4C701B6010E948C0B09C060E0D0
S113160070E080E290E404C060E070E080E990E47F
S1131610D9A0CAA07BA020E030E040E054E40E94BE
S11316205D0D0E94770C21E029839B013695279557
S1131630369527952A83637090E4699F700111247D
S113164020E030E048E951E46D8D7E8D8F8D98A1C6
S11316500E945D0D0E94770CE62AEB82AC82DD824B
S1131660CE827F82188799868A863B868CA1829552
S1131670807F922D990F990F892B082B0C870E943C
S113168010080E941A08882339F06CE0CE010196F4
S11316900E944908811105C0BB2019F082E00E9414
S11316A02909A4960FB6F894DEBF0FBECDBFDF9113
S11316B0CF911F910F91FF90EF90DF90CF90BF904B
S11316C0AF909F908F907F906F905F904F903F90DE
S11316D02F900895CF93DF931F92CDB7DEB70E946A
S11316E07E02CE0101960E94C6041092BC000F90A7
S11316F0DF91CF9108950E94500981E00E94C209B0
S11317000E94B8000E946A0B80E00E94C2090E94F5
S1131710C4000E941B09F4CF5058BB27AA270E947B
S1131720A40B0C941E0D0E94100D38F00E94170D8E
S113173020F039F49F3F19F426F40C940D0D0EF4A7
S1131740E095E7FB0C94070DE92F0E942F0D58F349
S1131750BA17620773078407950720F079F4A6F592
S11317600C94510D0EF4E0950B2EBA2FA02D0B0105
S1131770B90190010C01CA01A0011124FF27591BD2
S113178099F0593F50F4503E68F11A16F040A22FD8
S1131790232F342F4427585FF3CF46953795279549
S11317A0A795F0405395C9F77EF41F16BA0B620B48
S11317B0730B840BBAF09150A1F0FF0FBB1F661F8F
S11317C0771F881FC2F70EC0BA0F621F731F841FD2
S11317D048F4879577956795B795F7959E3F08F0F8
S11317E0B0CF9395880F08F09927EE0F97958795BA
S11317F008950E94E30C08F481E008950E94120CFD
S11318000C941E0D0E94170D58F00E94100D40F00C
S113181029F45F3F29F00C94070D51110C94520DDB
S11318200C940D0D0E942F0D68F39923B1F35523E9
S113183091F3951B550BBB27AA27621773078407DF
S113184038F09F5F5F4F220F331F441FAA1FA9F375
S113185035D00E2E3AF0E0E832D091505040E69563
S1131860001CCAF72BD0FE2F29D0660F771F881FC4
S1131870BB1F261737074807AB07B0E809F0BB0BB7
S1131880802DBF01FF2793585F4F3AF09E3F5105CB
S113189078F00C94070D0C94520D5F3FE4F3983EDE
S11318A0D4F3869577956795B795F7959F5FC9F7B4
S11318B0880F911D9695879597F90895E1E0660F35
S11318C0771F881FBB1F621773078407BA0720F0AE
S11318D0621B730B840BBA0BEE1F88F7E095089517
S11318E00E94770C6894B1110C94520D08950E94D3
S11318F0370D88F09F5798F0B92F9927B751B0F05A
S1131900E1F0660F771F881F991F1AF0BA95C9F77F
S113191014C0B13091F00E94510DB1E008950C94BF
S1131920510D672F782F8827B85F39F0B93FCCF372
S1131930869577956795B395D9F73EF490958095FC
S1131940709561957F4F8F4F9F4F0895E89409C01C
S113195097FB3EF490958095709561957F4F8F4FDE
S11319609F4F9923A9F0F92F96E9BB279395F695F4
S1131970879577956795B795F111F8CFFAF4BB0F72
S113198011F460FF1BC06F5F7F4F8F4F9F4F16C0D6
S1131990882311F096E911C0772321F09EE8872F60
S11319A0762F05C0662371F096E8862F70E060E01C
S11319B02AF09A95660F771F881FDAF7880F969595
S11319C0879597F90895990F0008550FAA0BE0E839
S11319D0FEEF16161706E807F907C0F012161306ED
S11319E0E407F50798F0621B730B840B950B39F42D
S11319F00A2661F0232B242B252B21F408950A2693
S1131A0009F4A140A6958FEF811D811D089597F9D2
S1131A109F6780E870E060E008959FEF80EC089590
S1131A2000240A94161617061806090608950024B9
S1131A300A9412161306140605060895092E039433
S1131A40000C11F4882352F0BB0F40F4BF2B11F4A7
S1131A5060FF04C06F5F7F4F8F4F9F4F089557FD06
S1131A609058440F551F59F05F3F71F04795880F08
S1131A7097FB991F61F09F3F79F08795089512169F
S1131A8013061406551FF2CF4695F1DF08C016164B
S1131A9017061806991FF1CF8695710561050894FC
S1131AA00895E894BB2766277727CB0197F9089513
S1131AB00E94E30C08F48FEF08950E94700D0C94BB
S1131AC01E0D0E94100D38F00E94170D20F0952372
S1131AD011F00C94070D0C940D0D11240C94520D5F
S1131AE00E942F0D70F3959FC1F3950F50E0551F81
S1131AF0629FF001729FBB27F00DB11D639FAA275F
S1131B00F00DB11DAA1F649F6627B00DA11D661FAD
S1131B10829F2227B00DA11D621F739FB00DA11DCE
S1131B20621F839FA00D611D221F749F3327A00D88
S1131B30611D231F849F600D211D822F762F6A2F24
S1131B4011249F5750409AF0F1F088234AF0EE0F89
S1131B50FF1FBB1F661F771F881F91505040A9F7B6
S1131B609E3F510580F00C94070D0C94520D5F3F7D
S1131B70E4F3983ED4F3869577956795B795F795F2
S1131B80E7959F5FC1F7FE2B880F911D969587956A
S1131B9097F90895AA1BBB1B51E107C0AA1FBB1FDD
S1131BA0A617B70710F0A61BB70B881F991F5A95E5
S1131BB0A9F780959095BC01CD01089597FB072E58
S1131BC016F4009407D077FD09D00E94CA0D07FCD3
S1131BD005D03EF4909581959F4F08957095619539
S1131BE07F4F0895A1E21A2EAA1BBB1BFD010DC055
S1131BF0AA1FBB1FEE1FFF1FA217B307E407F507B9
S1131C0020F0A21BB30BE40BF50B661F771F881F94
S1131C10991F1A9469F760957095809590959B012A
S1131C20AC01BD01CF010895052E97FB1EF400946D
S1131C300E942B0E57FD07D00E94F20D07FC03D023
S1131C404EF40C942B0E50954095309521953F4FB2
S1131C504F4F5F4F089590958095709561957F4F94
S1131C608F4F9F4F0895A29FB001B39FC001A39FC0
S1131C70700D811D1124911DB29F700D811D1124C1
S10B1C80911D0895F894FFCFB3
S1131C88415424543F0D415424563F0D4154245487
S1071C98523F0D00A6
S9030000FC
